:100000000C947F000C94A7000C94A7000C94A700FC
:100010000C94A7000C94A7000C94A7000C94A700C4
:100020000C94A7000C94A7000C94A7000C94A700B4
:100030000C94A7000C94A7000C94A7000C94A700A4
:100040000C94260C0C94A7000C94960C0C94700C39
:100050000C94A7000C94A7000C94A7000C94A70084
:100060000C94C80C0C94A700436F756C64206E6FE1
:10007000742066696E6420424831373530207365DC
:100080006E736F72210000000000250028002B0015
:10009000040404040404040402020202020203032E
:1000A0000303030301020408102040800102040836
:1000B00010200102040810200000000800020100C6
:1000C000000304070000000000000000CDCCCC3D80
:1000D0000AD7233C17B7D13877CC2B329595E62435
:1000E0001FB14F0A000020410000C84200401C46DA
:1000F00020BCBE4CCA1B0E5AAEC59D74E70D112420
:100100001FBECFEFD8E0DEBFCDBF11E0A0E0B1E071
:10011000E8E5FFE202C005900D92A437B107D9F7D8
:1001200023E0A4E7B1E001C01D92A833B207E1F7D4
:1001300010E0CFE7D0E004C02197FE010E948215B5
:10014000CE37D107C9F70E94620E0C94AA170C94FF
:10015000000090E0FC01E854FF4F2491FC01EC55B5
:10016000FF4F3491FC01E057FF4FE491EE23C9F0BB
:10017000222339F0233001F1A8F4213019F1223083
:1001800029F1F0E0EE0FFF1FEA57FF4FA591B49160
:100190008FB7F894EC91611126C030953E233C93C3
:1001A0008FBF08952730A9F02830C9F0243049F7CF
:1001B000809180008F7D03C0809180008F77809335
:1001C0008000DFCF84B58F7784BDDBCF84B58F7D92
:1001D000FBCF8091B0008F778093B000D2CF809119
:1001E000B0008F7DF9CF3E2BDACF3FB7F8948091E6
:1001F000C1019091C201A091C301B091C40126B583
:10020000A89B05C02F3F19F00196A11DB11D3FBF4E
:10021000BA2FA92F982F8827BC01CD01620F711D1D
:10022000811D911D42E0660F771F881F991F4A9517
:10023000D1F708952FB7F8946091BD017091BE0178
:100240008091BF019091C0012FBF08950895089536
:10025000AF92BF92CF92DF92EF92FF920F931F93D4
:10026000CF93DF936C017B018B01040F151FEB0112
:100270005E01AE18BF08C017D10759F06991D601C9
:10028000ED91FC910190F081E02DC6010995892B3B
:1002900079F7C501DF91CF911F910F91FF90EF90FA
:1002A000DF90CF90BF90AF90089542E050E066E3BA
:1002B00071E087E392E00C942801FC01538D448D9A
:1002C000252F30E0842F90E0821B930B541710F001
:1002D000CF96089501970895FC01918D828D98170E
:1002E00061F0A28DAE0FBF2FB11D5D968C91928DE6
:1002F0009F5F9F73928F90E008958FEF9FEF089517
:10030000FC01918D828D981731F0828DE80FF11DDF
:10031000858D90E008958FEF9FEF0895FC01918DFA
:10032000228D892F90E0805C9F4F821B91098F73F3
:100330009927089587E392E00E948E0121E0892B9E
:1003400009F420E0822F089580E090E0892B29F0C5
:100350000E949A0181110C9400000895FC01A48D63
:10036000A80FB92FB11DA35ABF4F2C91848D90E0D7
:1003700001968F739927848FA689B7892C93A089BA
:10038000B1898C91837080648C93938D848D981344
:1003900006C00288F389E02D80818F7D80830895D7
:1003A000EF92FF920F931F93CF93DF93EC0181E0C5
:1003B000888F9B8D8C8D98131AC0E889F98980816C
:1003C00085FF15C09FB7F894EE89FF896083E8899F
:1003D000F98980818370806480839FBF81E090E091
:1003E000DF91CF911F910F91FF90EF900895F62E1E
:1003F0000B8D10E00F5F1F4F0F731127E02E8C8DB8
:100400008E110CC00FB607FCFACFE889F9898081FC
:1004100085FFF5CFCE010E94AE01F1CFEB8DEC0F41
:10042000FD2FF11DE35AFF4FF0829FB7F8940B8F19
:10043000EA89FB8980818062CFCFCF93DF93EC0183
:10044000888D8823B9F0AA89BB89E889F9898C91BC
:1004500085FD03C0808186FD0DC00FB607FCF7CF78
:100460008C9185FFF2CF808185FFEDCFCE010E9478
:10047000AE01E9CFDF91CF91089520919501260F2C
:100480003327331F21323105ECF420910D02FC019A
:1004900090E080E0243069F082E00895A091950119
:1004A0002191AC014B585E4FA40FB52FB11D2C9379
:1004B0000196861798F380919501680F60939501D6
:1004C00080E0089581E0089510920D0281E080930C
:1004D0000C021092E70161E082E10E94A90061E054
:1004E00083E10E94A900E9EBF0E080818E7F8083A8
:1004F00080818D7F808388E48093B80085E4809339
:10050000BC000895CF93DF9391E09093740188230A
:10051000B9F0C091B800D091BA008091BC008A7B3C
:100520008093BC0060E082E10E94A90060E083E16A
:100530000E94A9000E946402D093BA00C093B80040
:10054000DF91CF9108958F929F92AF92BF92CF92F9
:10055000DF92EF92FF920F931F93CF93DF93D0918F
:100560003602D13208F0D7C0182FC09135020E9450
:10057000F5006B017C0180910D0281116BC082E05E
:1005800080930D0210930C028FEF80930B02109258
:100590000A02D0930902A5E1B2E0E9EEF1E080E0C1
:1005A000D81391C01092E8018091E801CC0FC82BBC
:1005B000C093E8018091E701813009F088C0109272
:1005C000E7010E94F5006B017C018091E8018093B6
:1005D000BB0080910F0290911002A0911102B09186
:1005E0001202892B8A2B8B2BA1F00E94F50000911F
:1005F0000F021091100220911102309112026C1919
:100600007D098E099F09061717072807390708F47F
:1006100042C08091BC0083FDD8CF85EC8093BC00A4
:100620000E94F5006B017C0180910D02823009F47B
:1006300050C080910B028F3F09F46FC080910B0274
:10064000803209F46CC080910B02803309F469C0D8
:1006500084E026C080910F0290911002A0911102B7
:10066000B0911202892B8A2B8B2B09F484CF0E9424
:10067000F50080900F0290901002A0901102B090AF
:1006800012026C197D098E099F0986169706A80625
:10069000B90608F070CF80910E020E94820285E0B8
:1006A000109214021092360210921302DF91CF9131
:1006B0001F910F91FF90EF90DF90CF90BF90AF9080
:1006C0009F908F9008959D9191938F5F69CF85EE54
:1006D000A5CF80910F0290911002A0911102B091CC
:1006E0001202892B8A2B8B2B09F49ECF0E94F500D6
:1006F00000910F021091100220911102309112020C
:100700006C197D098E099F090617170728073907F5
:1007100008F08ACFC0CF81E0C3CF80E0C1CF82E0B4
:10072000BFCF83E0BDCFA091E002B091E10291E0A4
:100730009093130290E49093350210921402109259
:100740003602ED91FC9111970190F081E02D682F18
:10075000CD01099581E00E94A302882329F081E858
:100760008093EB0280E0089581E00895A09100035A
:10077000B09101039091020321E020931302909322
:1007800035021092140210923602ED91FC911197ED
:100790000190F081E02D682FCD01099581E00E9444
:1007A000A30291E0811190E0892F0895CF92DF920A
:1007B000EF92FF920F931F93CF93DF93D82FC62F03
:1007C000613208F098C00E94F5006B017C018091B5
:1007D0000D0281116BC081E080930D0280930C02A9
:1007E0009FEF90930B0210920A029C0F90930902C4
:1007F0008093E8018091E801DD0FD82BD093E801C8
:100800008091E701813009F078C01092E7010E94E1
:10081000F5006B017C018091E8018093BB00809121
:100820000F0290911002A0911102B0911202892B37
:100830008A2B8B2BA1F00E94F50000910F021091E2
:10084000100220911102309112026C197D098E095B
:100850009F09061717072807390708F448C0809131
:10086000BC0083FDD8CF85EC8093BC000E94F500CE
:100870006B017C0180910D02813009F440C08091B0
:100880000A028C1710F4C0910A02E9EEF1E0A7EC1D
:10089000B1E080E08C1355C08C2FDF91CF911F9178
:1008A0000F91FF90EF90DF90CF90089580910F020D
:1008B00090911002A0911102B0911202892B8A2B03
:1008C0008B2B09F484CF0E94F50000910F02109148
:1008D000100220911102309112026C197D098E09CB
:1008E0009F09061717072807390708F070CF80916E
:1008F0000E020E948202C0E0CFCF85EEB5CF80917C
:100900000F0290911002A0911102B0911202892B56
:100910008A2B8B2B09F4AECF0E94F50000910F02B9
:100920001091100220911102309112026C197D0970
:100930008E099F09061717072807390708F09ACF6D
:10094000D6CF91919D938F5FA5CF0895E091C60179
:100950008091C501E81730F4F0E0E953FE4F808143
:1009600090E008958FEF9FEF08959091C6018091D8
:10097000C5012FEF3FEF981748F4E92FF0E0E95356
:10098000FE4F208130E09F5F9093C601C90108951A
:100990008091C5019091C601891B990B0895CF9252
:1009A000DF92EF92FF920F931F93CF93DF937C011F
:1009B000CB018A0120911302222389F0EB016B0104
:1009C000C40ED51ECC15DD0569F06991D701ED91F6
:1009D000FC910190F081E02DC7010995F3CF642FC0
:1009E0000E943D02C801DF91CF911F910F91FF90AE
:1009F000EF90DF90CF900895CF93DF931F92CDB704
:100A0000DEB76983209113022223F9F02091360288
:100A1000203258F021E030E0FC013383228390E063
:100A200080E00F90DF91CF91089580911402E82F1C
:100A3000F0E0EB5EFD4F998190838F5F809314020D
:100A40008093360281E090E0ECCF61E0CE01019628
:100A50000E943D02F7CF90E080E008956F3FA9F03B
:100A6000E62FE295EF7044E0E49F90011124DC0151
:100A7000ED91FC91E20FF31F6F7082819381B6E0DC
:100A80006B9F800D911D1124089590E080E00895E2
:100A9000CF93DF93EC0188819981DC01ED91FC918A
:100AA0000190F081E02D09952A813B81820F931FEF
:100AB0009B838A83DF91CF910895CF93DF93EC01DD
:100AC00088819981DC01ED91FC910280F381E02D18
:100AD00009952A813B81820F931F9B838A83DF9133
:100AE000CF9108958F929F92AF92BF92CF92DF9253
:100AF000EF92FF920F931F93CF93DF93CDB7DEB7A3
:100B000066970FB6F894DEBF0FBECDBF6C018E01A5
:100B1000095E1F4F78018AE0882E912CA12CB12C00
:100B2000CB01BA01A50194010E946015942F852F75
:100B3000605DF80162938F01A901692F782F41153B
:100B400051056105710561F7A7014E1B5F0BBF01E0
:100B5000C6010E945D0566960FB6F894DEBF0FBE13
:100B6000CDBFDF91CF911F910F91FF90EF90DF905C
:100B7000CF90BF90AF909F908F900895DC015296D8
:100B80009C915297915084E0989F90011124509627
:100B9000ED91FC91E20FF31F228133812115310584
:100BA00079F041818081481758F481E0840F818376
:100BB00086E0489F200D311D11242115310521F4B7
:100BC00060E070E08FEF0895B901892F8295807FF2
:100BD000840F0895AF92BF92CF92DF92EF92FF926F
:100BE0000F931F93CF93DF93EC018B018C8180FFD8
:100BF0002CC0A881B981FB018381948130E020E081
:100C0000009719F1A817B90709F041C0F801408110
:100C1000518112969C911297915012969C93129723
:100C2000911113C08D919C9111972115310561F19E
:100C3000F90191838083FA0180819181FC012281F5
:100C40003381BD01CA01F90109958C81807631F1AA
:100C5000209721F1F8805801F5E1AF0EB11C8FEF1C
:100C6000F816D1F06F2DC5010E942E056C01FC0114
:100C7000E580B8010E94EA05F801818DF6018083C4
:100C8000F801F18EFE2CEBCF94838383D4CF9C01AB
:100C9000FC0180819181B4CFF882F9821C82DF91BE
:100CA000CF911F910F91FF90EF90DF90CF90BF9069
:100CB000AF900895FB0101900020E9F73197AF0153
:100CC000461B570B0C945D05CF92DF92EF92FF927B
:100CD0000F931F93CF93DF938C016B017A0162E234
:100CE0000E944805E601EC0CFD1CEC16FD0699F08F
:100CF0006991E9E3F1E0D480DD20C9F03296838187
:100D00006813F9CF6CE5C8010E9448056D2DC80134
:100D10000E944805EACF62E2C801DF91CF911F919E
:100D20000F91FF90EF90DF90CF900C9448056111E8
:100D3000EECF6CE471E0C8010E945A06D6CF2F9224
:100D40003F924F925F926F927F928F929F92AF925B
:100D5000BF92CF92DF92EF92FF920F931F93CF93A8
:100D6000DF93CDB7DEB76B970FB6F894DEBF0FBE3B
:100D7000CDBF7C018B01DC0114968C9114978A30D5
:100D800009F4A0C2F0F4843009F479C268F4833025
:100D900009F490C263E571E0C8010E945A06D801C7
:100DA00012968D919C9129C2853009F47BC28630C0
:100DB00089F78C9168E571E0811155C06DE571E0AE
:100DC00052C08E3009F440C0C8F48C3019F7CD9071
:100DD000DD90ED90FC90B701A601F7FE0BC06DE22F
:100DE000C8010E94480544275527BA014C195D09DE
:100DF0006E097F09C8010E947205FCC1803209F4A6
:100E000015C2803439F66BE5C8010E944805D70148
:100E1000FC90BFEFFB1609F4E9C1F80184819581CC
:100E20006F2D45960E942E057C01B8010E949F06F9
:100E3000D7011596FC90BFEFFB1609F4D7C16CE201
:100E4000C8010E944805E5CFF70180809180A2800B
:100E5000B380A5019401C501B4010E947B138823CE
:100E600031F063E571E0C8010E945A06C3C120E079
:100E700030E0A901C501B4010E947B13882371F001
:100E8000A5019401C501B4010E940F139B01AC019F
:100E9000C501B4010E947B13882319F320E030E0E0
:100EA000A901C501B4010E947B1387FF08C06DE250
:100EB000C8010E944805B7FAB094B7F8B09420E88A
:100EC00036E948E15BE4C501B4010E94DA1487FD0C
:100ED00083C074E1C72ED12CE0E2EE2EF12C312C30
:100EE000212CF601EC51FF4F6591759185919491FC
:100EF000A50194010E947B1318167CF0F601E453BF
:100F0000FF4F2591359145915491C501B4010E943F
:100F1000DF144B015C012E0C3F1CF594E794F4E0C8
:100F2000CF1AD1082CEFC2162FEFD206D1F63FEF21
:100F30003F8B20E030E0A901C501B4010E94DA1422
:100F400018160CF051C02CEA35EC47E257E3C50106
:100F5000B4010E947B1318160CF446C0AF89B4E0AC
:100F6000AB02C0011124D12CC12CFC01E453FF4F72
:100F70002F019C012C513F4F39013F893F3F09F41C
:100F800033C0F201EC0DFD1D659175918591949131
:100F900020E030E040E251E40E94DF14A50194011A
:100FA0000E94DA1418167CF4F301EC0DFD1D259156
:100FB000359145915491C501B4010E94DF144B0154
:100FC0005C012E183F08F594E7948F8981508F8B30
:100FD00094E0C91AD108D1CF50E2E52EF12C85E07A
:100FE0008F8B312C212CA5CFC501B4010E94F913A0
:100FF0006B017C012B013C0180E492E4AFE0B0E0A6
:10100000888F998FAA8FBB8F96E09F8BAAE04A1694
:10101000510461047104E0F0688D798D8A8D9B8D97
:101020002AE030E040E050E00E946015288F398FC0
:101030004A8F5B8FBF89B150BF8BC301B2012AE0D9
:1010400030E040E050E00E94601529013A01DECF17
:10105000C701B6010E9428149B01AC01C501B4016F
:101060000E940E134B015C01688D798D8A8D9B8DDA
:101070000E9428149B01AC01C501B4010E94DF1439
:101080002B013C010E94F9134B015C010E942814C2
:101090009B01AC01C301B2010E940E139B01AC0184
:1010A0000E940F130E94F913860E971EA81EB91EE8
:1010B000888D998DAA8DBB8D88169906AA06BB06C8
:1010C000C0F09FEFC91AD90AE90AF90A21143104BC
:1010D00039F1AAE0CA16D104E104F10408F1BFEF26
:1010E0002B1A3B0A812C912C5401C12CD12C760156
:1010F000C3942AE0422E512C612C712CC501B401FD
:10110000A30192010E946015672B682B692B61F483
:10111000EF891E164CF449015A01E150EF8BEECFD6
:10112000812C912C5401E5CFB701A601C8010E9482
:101130007205FF89FF2391F16E0121E1C20ED11CDE
:10114000F88F76019AE0492E512C612C712C388D44
:101150003150388F3F3F69F0C501B401A3019201BE
:101160000E946015605DD6016E936D0149015A01C0
:10117000EECFBF898B2F90E0BC0160957095F70191
:10118000E81BF90B31978EE2808344275527461BD5
:10119000570B6E0D7F1DC8010E945D05211431049F
:1011A00049F165E6C8010E944805710137FE07C094
:1011B0006DE2C8010E944805F194E194F108FE0136
:1011C00077969F018AE0C82ED12CC701B6010E94F4
:1011D0004C15805D82937B01672BB9F7A9014E1BEB
:1011E0005F0BBF01C8010E945D0504C06DE5C80129
:1011F0000E944805F801828193816B960FB6F8949E
:10120000DEBF0FBECDBFDF91CF911F910F91FF9039
:10121000EF90DF90CF90BF90AF909F908F907F9096
:101220006F905F904F903F902F9008956BE7C801AB
:101230000E944805D701FC90EE24E394BB24B394AC
:10124000BFEFFB16D1F0F801848195816F2D459693
:101250000E942E056C01B8010E949F06D6011596CA
:10126000FC90BFEFFB1639F06AE3E11001C06CE2BD
:10127000C8010E944805EB24E3CF6DE7B8CF6D911C
:101280007C9150E040E06115710541F0FB01019057
:101290000020E9F73197AF01461B570BC8010E94A8
:1012A0006406A8CFED91FC91438150E0BF016C5FD3
:1012B0007F4FF4CFED91FC91438150E0BF016C5F13
:1012C0007F4F90CF4D915D916D917C9193CD8F9299
:1012D0009F92AF92BF92CF92DF92EF92FF920F93C5
:1012E0001F93CF93DF93182F092FC62E63E080E45E
:1012F0000E94D6031092C6018093C5010E941A0174
:101300004B015C01D12CF12CE12C8091E0029091F9
:10131000E102DC01ED91FC910084F185E02D09955D
:10132000039724F1C12FD02F8E010D5F1F4F8091A5
:10133000E0029091E102DC01ED91FC910284F385E1
:10134000E02D099589930C171D0789F71092EB0280
:1013500081E0DF91CF911F910F91FF90EF90DF908F
:10136000CF90BF90AF909F908F9008950E941A01E8
:10137000681979098A099B09C616D706E806F9068D
:1013800020F682E88093EB0280E0E3CF85ED809346
:10139000BC0080910F0290911002A0911102B091B7
:1013A00012020796A11DB11D23E0B695A79597954A
:1013B00087952A95D1F72091BC0024FD03C0109297
:1013C0000D02089540910F02509110026091110298
:1013D00070911202452B462B472B69F30097A1050C
:1013E000B10541F02AE22A95F1F700C00197A10961
:1013F000B109E1CF80910E020C948202BF92CF928C
:10140000DF92EF92FF920F931F93CF93DF93EC0144
:10141000198D1F3F81F0612F45960E942E05FC011A
:101420008081898F309709F477C014828FEF85838C
:10143000BF01812F76C06C0135E0C30ED11CE8805E
:10144000F9808F89882341F0C6010E94BE05E62FEE
:10145000F72F182F309749F71F89988D191324C03B
:10146000103109F459C0110F6D897E89D701ED91B2
:10147000FC91B4E01B9FA0011124C616D70609F009
:1014800044C00190F081E02DBA01C7010995009791
:1014900009F442C020E1F601DC0101900D922A9589
:1014A000E1F79E8B8D8B188F0D891E898F8921E026
:1014B000280F2F8BE4E08E9FC0011124080F191F05
:1014C00090E1B92E203111F48FE0B82EF6E0BF9EE6
:1014D000B0011124D701ED91FC910190F081E02D34
:1014E000C7010995F80193838283892B09F4B12CF4
:1014F000D801BC9211961C92012B71F0C6010E947A
:10150000BE05E62FF72F182F8DCF0480F581E02D33
:10151000C7010995009729F681E08A8360E070E0B1
:101520008FEFDF91CF911F910F91FF90EF90DF90A0
:10153000CF90BF9008952F923F924F925F926F92FB
:101540007F928F929F92AF92BF92CF92DF92EF9253
:10155000FF920F931F93CF93DF9300D000D0CDB7AE
:10156000DEB7FC011A0141155105D1F4F12CE12C33
:10157000C7010F900F900F900F90DF91CF911F91A7
:101580000F91FF90EF90DF90CF90BF90AF909F9022
:101590008F907F906F905F904F903F902F90089525
:1015A0008481811130C080E284833097F9F28FEF1B
:1015B000808381833C832B834A015B012F01690176
:1015C00025E1C20ED11C6081C6010E942E05FC01DE
:1015D00077247A94892B09F0758085011F7766241A
:1015E00063947801E20CF31C309709F4BFC06620C5
:1015F00059F18481843069F0853089F190E080E090
:10160000B0E0A0E015C0803209F0B0CF309791F67D
:10161000ADCFA081B18190E080E0109741F0FD0155
:1016200001900020E9F73197CF018A1B9B0B9F7730
:101630000817190749F4F101EE15FF0509F48EC0EA
:1016400091918D919817C1F381E06826672DC601AD
:101650000E942E05FC01892B39F27580C5CF0190BF
:10166000F081E02DDF011496838190E0E1CF5A2DC7
:101670004F77AB81BC811396ED91FC91052F142F10
:10168000309729F1838190E08017910789F48101D7
:101690009F012C5F3F4F820D931D8017910761F0D2
:1016A000D8017D918D01D9016D919D017617A9F326
:1016B0000190F081E02DE2CF82818F5F828385E00F
:1016C000D30114968C931497ED93FC936EC00F3F47
:1016D000110509F030F5B8016B5F7F4F6017710796
:1016E00000F1EB81FC8180819181DC01ED91FC9125
:1016F0000190F081E02D0995FC01892B91F0A382E6
:1017000081E08283A401CF010496800E911E84168D
:10171000950661F0DA012D91AD01DC012D93CD012B
:10172000F6CF81E0EB81FC81828320CFDF01A00F27
:10173000B11F14961C92AB81BC8113968D919C9124
:101740001497918380831496FC93EE931397B7CFED
:10175000EA81EC93F9811196FC930ACF672DC601BB
:101760000E942E057C01892B09F002CF8B819C8180
:101770000E94FE098A833B01672B09F4F7CE8B8117
:101780009C810E94FE098983962FE92EF72EE11491
:10179000F10409F4EBCE4B2DB7FE69CF84E0D30101
:1017A00014968C9314978D929C922981F301258332
:1017B000D20111966C9111976F3F51F2C6010E94B0
:1017C0002E052A81FC012583E981D2011196EC9333
:1017D000CFCECF92DF92EF92FF920F931F93CF93D2
:1017E000DF93FC0100811181C8014A9619F17B0148
:1017F000428153816481758198010E949B0AEC01AA
:101800000097C1F0F701C080D180E280F380B80179
:101810000E94EA058CE08C83C882D982EA82FB822E
:1018200081E0DF91CF911F910F91FF90EF90DF90BA
:10183000CF90089580E0F5CFCB01BA010C94AD169E
:10184000CB010C942416CB010C9488151F920F9297
:101850000FB60F9211242F933F938F939F93AF93C3
:10186000BF938091BD019091BE01A091BF01B09145
:10187000C0013091BC0123E0230F2D3758F50196AC
:10188000A11DB11D2093BC018093BD019093BE01A9
:10189000A093BF01B093C0018091C1019091C2019A
:1018A000A091C301B091C4010196A11DB11D809307
:1018B000C1019093C201A093C301B093C401BF9131
:1018C000AF919F918F913F912F910F900FBE0F90ED
:1018D0001F90189526E8230F0296A11DB11DD2CFA7
:1018E0001F920F920FB60F9211242F933F934F9395
:1018F0005F936F937F938F939F93AF93BF93EF9378
:10190000FF9387E392E00E94AE01FF91EF91BF91B8
:10191000AF919F918F917F916F915F914F913F9187
:101920002F910F900FBE0F901F9018951F920F923E
:101930000FB60F9211242F938F939F93EF93FF93E2
:10194000E0914702F09148028081E0914D02F091D0
:101950004E0282FD1BC09081809150028F5F8F7379
:1019600020915102821741F0E0915002F0E0E95CD1
:10197000FD4F958F80935002FF91EF919F918F9132
:101980002F910F900FBE0F901F9018958081F4CF6C
:101990001F920F920FB60F9211242F933F934F93E4
:1019A0005F936F937F938F939F93AF93BF93EF93C7
:1019B000FF938091B900887F803609F44AC0F0F522
:1019C000883209F4A7C018F5803109F49BC0B8F437
:1019D000882309F4F9C0883009F494C0FF91EF918D
:1019E000BF91AF919F918F917F916F915F914F9137
:1019F0003F912F910F900FBE0F901F901895883137
:101A000009F488C0803251F780930B0214C08034EF
:101A100009F49DC040F48033B9F38833F9F680931C
:101A20000B0285ECB0C0803509F485C0883509F417
:101A300096C0883499F60E94C609D0CF883909F437
:101A40008CC038F5883729F050F4883611F080378B
:101A500029F683E080930D021092B70157C08838B1
:101A600009F47BC0803919F0803809F0B7CF809134
:101A7000B701803208F071C0E091B70181E08E0FAC
:101A80008093B7018091BB00F0E0E956FE4F808360
:101A90003DC0803B39F0E0F4803A09F479C0883ADF
:101AA00009F09CCF84E080930D0210929601109271
:101AB0009501E091B801F091B901099580919501E6
:101AC00081110FC081E0809395011092750109C0CA
:101AD000803C09F4A6CF883C09F4A3CF883B09F0E9
:101AE0007DCFE091960181E08E0F80939601F0E02A
:101AF000EB58FE4F80818093BB00909196018091BE
:101B0000950129C08091E8018093BB0085EC80930A
:101B1000BC0064CF90910A0280910902981758F591
:101B2000E0910A0281E08E0F80930A02F0E0E75113
:101B3000FE4F8081E9CFE0910A0281E08E0F809311
:101B40000A028091BB00F0E0E751FE4F8083909144
:101B50000A02809109029817C8F285E8D8CFE0916F
:101B60000A0281E08E0F80930A028091BB00F0E0B0
:101B7000E751FE4F808380910C0281115CCF81E0A0
:101B80008093E70184EA8093BC0010920D0226CF77
:101B900085EC8093BC0010920D028091B7018032D9
:101BA00030F4E091B701F0E0E956FE4F1082609109
:101BB000B70170E0E091BA01F091BB0187E991E0D3
:101BC00009951092B7010ACF10920B0234CFE7E3C8
:101BD000F2E01382128248EE53E060E070E044834A
:101BE00055836683778386E191E09183808385ECDA
:101BF00090E09587848784EC90E09787868780ECD7
:101C000090E0918B808B81EC90E0938B828B82ECC7
:101C100090E0958B848B86EC90E0978B868B118E71
:101C2000128E138E148EA4EDB2E013961C921E92A7
:101C3000129714964D935D936D937C93179788E25A
:101C400091E011969C938E93ECEFF2E04AE959E90A
:101C500069E97FE3408351836283738382E38087F2
:101C600011864AE050E060E070E0408F518F628F53
:101C7000738F158E148E40E050E060E07FE344A344
:101C800055A366A377A3E0EEF2E0B183A0831282AE
:101C9000138214821582158616861786108A118A79
:101CA0001782168211861086128A138A148A158A60
:101CB000168A178A108E118E128E138E1386128634
:101CC00014860895CF93DF93CDB7DEB7AE970FB6E6
:101CD000F894DEBF0FBECDBF789484B5826084BD1A
:101CE00084B5816084BD85B5826085BD85B5816020
:101CF00085BD80916E00816080936E00109281009E
:101D00008091810082608093810080918100816058
:101D10008093810080918000816080938000809119
:101D2000B10084608093B1008091B00081608093A5
:101D3000B00080917A00846080937A0080917A006C
:101D4000826080937A0080917A00816080937A002B
:101D500080917A00806880937A001092C100E091AF
:101D60004702F091480282E08083E0914302F091C3
:101D700044021082E0914502F09146028FEC80838C
:101D800010924F02E0914B02F0914C0286E080836A
:101D9000E0914902F0914A02808180618083E09164
:101DA0004902F0914A02808188608083E091490273
:101DB000F0914A02808180688083E0914902F0912D
:101DC0004A0280818F7D80831092C6011092C501E6
:101DD00010921402109236020E94640286E291E090
:101DE0009093B9018093B80187E291E09093BB0191
:101DF0008093BA0181E08093130280E480933502DE
:101E000081E00E94A302882309F4FBC384E8809345
:101E1000EB0284ED92E09093010380930003109213
:101E2000C6011092C50110921402109236020E944F
:101E3000640286E291E09093B9018093B80187E251
:101E400091E09093BB018093BA0183E280930203F7
:101E500085E48093030381E290E0909329038093CB
:101E6000280380E090E0A0E0BFE3809320039093FC
:101E70002103A0932203B09323031092190310921D
:101E800018038AE090E0A0E0B0E080931403909300
:101E90001503A0931603B09317038FE180932A03D1
:101EA0008EEF80932B0381E590E090932D03809338
:101EB0002C0387E992E090932F0380932E038BE00D
:101EC00090E0909331038093300389E590E0909304
:101ED00033038093320384EB90E090930703809365
:101EE000060382E40E94B60385E60E94B6038823B7
:101EF00009F4EBC19E012F5F3F4F1901AE014A5F0C
:101F00005F4F5CA74BA783EF0E9493038111EEC143
:101F10008FEF8093F1026091E6027091E70290E00A
:101F200080E00E94281422E538EB4FE25BE30E9438
:101F3000DF1426E636E64BE352E40E940E132B0133
:101F40003C016091E8027091E90290E080E00E941B
:101F5000281420E030E04AEF5AE30E94DF1420E02A
:101F600030E040EC50E40E940E134B015C0181E034
:101F70000E94B603882319F087E00E94B60380917F
:101F800028030E94B6036091030370E090E080E0B4
:101F90000E942A149B01AC0160E070E08AE892E4A0
:101FA0000E9480132091200330912103409122034D
:101FB000509123030E94DF14609324037093250340
:101FC00080932603909327030E941A0160930803CD
:101FD0007093090380930A0390930B0320910603E7
:101FE00030910703DC01CB01820F931FA11DB11DAE
:101FF0000091180310911903012E000C220B330BD2
:10200000080F191F2A1F3B1F00930C0310930D0389
:1020100020930E0330930F030091140310911503C6
:102020002091160330911703080F191F2A1F3B1F19
:1020300000931003109311032093120330931303A2
:1020400010921B0310921A0310921F0310921E038A
:1020500010921D0310921C031092050362E0809100
:1020600002030E94D6031092C6018093C5018230FC
:1020700008F005C227EE33E030931D0320931C03C4
:10208000F0E0E0E0F0931F03E0931E0320911C03B7
:1020900030911D03232B11F321E020930503BF0191
:1020A00090E080E00E9428142091FC023091FD0213
:1020B0004091FE025091FF020E9480132091240360
:1020C0003091250340912603509127030E94DF148D
:1020D0006B017C0180E091E09A8389831B821D82E1
:1020E0001C82A6E0B0E0AC0FBD1FBF8BAE8B188E7C
:1020F00084E0898F8FEF8A8F1F8E88A320E030E0E5
:1021000040E251E4C301B2010E94DF142B013C0103
:1021100020E030E0A9010E94DA1420E030E040E045
:102120005FE387FD1FC2C301B2010E940F130E942B
:10213000F2130E942A1420E030E040E251E40E94B1
:1021400080132B013C01E3E6F1E0FCA3EBA384E068
:102150008DA38EA1807880688EA34BA15CA16DA118
:102160007EA19101CE014B960E949B0A8C010097A3
:1021700061F0B1010E94EA058EE0D80114968C93BB
:10218000F801408251826282738220E030E0A9012E
:10219000C501B4010E94DA1420E030E040E05FE3C2
:1021A00087FDE5C1C501B4010E940F130E94F2131F
:1021B0006FA378A789A79AA73AA229A228E631E0B7
:1021C0003CA32BA384E08DA38EA1807880688EA38E
:1021D000BE01695D7F4FCE0181960E94E90B20E030
:1021E00030E0A901C701B6010E94DA1420E030E016
:1021F00040E05FE387FDC0C1C701B6010E940F1335
:102200000E94F2136FA378A789A79AA73AA229A2DE
:102210004DE651E05CA34BA385E08DA38EA18078B1
:1022200080688EA3BE01695D7F4FCE0181960E94BA
:10223000E90B87E392E09AA389A31CA21BA23EA20A
:102240002DA2BE016F5D7F4FCE014B960E949F066F
:102250000E9455010E94F5004B015C0188EEC82EDA
:1022600083E0D82EE12CF12C0E94F5006819790941
:102270008A099B09683E734081059105A8F351E0E6
:10228000C51AD108E108F10888EE880E83E0981E8F
:10229000A11CB11CC114D104E104F10429F7098186
:1022A0001A816C817D816115710509F46AC1FB0198
:1022B000808191819D838C83D801ED91FC91028076
:1022C000F381E02DC8010995ECCF08E610E0F80194
:1022D0006491662341F087E392E00E94D0010F5F92
:1022E0001F4F892BA1F70E945501FFCF0E941A01B1
:1022F0006093ED027093EE028093EF029093F002F0
:1023000081E08093F1028091F1028130F1F70E9427
:102310001A010091ED021091EE022091EF0230912E
:10232000F002DC01CB01801B910BA20BB30B8B30B5
:102330009105A105B10538F32091EC02233099F005
:1023400086319105A105B105F0F2213061F08B32A3
:102350009105A105B105B8F2223029F08535910526
:10236000A105B10580F26AE5C1010E9467098111EA
:1023700004C082E88093EB02CECD8981282F30E023
:10238000322F22278A81820F932F911D8C7F909369
:10239000E7028093E6021092F1021092EB020E9493
:1023A0001A016093E2027093E3028093E402909337
:1023B000E50285EF0E949303882309F4A9CD0E94CA
:1023C0001A016093ED027093EE028093EF029093F6
:1023D000F00282E08093F1028091F1028230F1F705
:1023E0000E941A010091ED021091EE022091EF027D
:1023F0003091F002DC01CB01801B910BA20BB30BDF
:1024000084309105A105B10538F32091EC0221300B
:1024100091F089309105A105B105F0F2223059F013
:102420008F309105A105B105B8F2233021F04D9709
:10243000A105B10588F26EE1C1010E9467098823F8
:1024400009F469CD8981282F30E0322F22278A8133
:10245000820F932F911D8C7F9093E9028093E80265
:102460001092F1021092EB020E941A016093E202B4
:102470007093E3028093E4029093E5024CCD809147
:10248000000390910103DC01ED91FC910084F18542
:10249000E02D099502970CF4EDCD80910003909109
:1024A0000103DC01ED91FC910284F385E02D099597
:1024B000182F8091000390910103DC01ED91FC91B4
:1024C0000284F385E02D099520911A0330911B03B6
:1024D0002F5F3F4F30931B0320931A031EA71DA6A7
:1024E000EDA5FEA5E82BCF0190931F0380931E035B
:1024F0000E941A01E0911E03F0911F03309789F0AA
:1025000020911C0330911D03232B59F420910803C3
:1025100030910903AB01421B530B50931D034093B1
:102520001C030091100310911103209112033091AC
:102530001303601771078207930708F4A3CD209156
:102540001C0330911D03232B09F09CCD209108031F
:1025500030910903AB01421B530B50931D03409371
:102560001C0390CDC301B2010E940E13E0CDC50142
:10257000B4010E940E131ACEC701B6010E940E13B9
:102580003FCEE980FA80D12C6E897F89888DD8165C
:10259000D8F4B4E0DB9E80011124060F171FF80168
:1025A000628173816115710541F0D701ED91FC9154
:1025B0000280F381E02DC7010995F8011382128290
:1025C00010821182D394E0CF188E8FEF8A8F2BA5C3
:1025D0003CA56217730741F0D701ED91FC91028091
:1025E000F381E02DC701099580E090E0892B09F483
:1025F0008ACC0E949A01882309F485CC0E940000AD
:1026000082CC8EEF0E949303882309F402CC1092AF
:10261000EC021092FB021092EB02FBCB5058BB274E
:10262000AA270E9426130C94A0140E94921438F03A
:102630000E94991420F039F49F3F19F426F40C9469
:102640008F140EF4E095E7FB0C948914E92F0E9497
:10265000B11458F3BA17620773078407950720F07F
:1026600079F4A6F50C94D3140EF4E0950B2EBA2F42
:10267000A02D0B01B90190010C01CA01A001112488
:10268000FF27591B99F0593F50F4503E68F11A1634
:10269000F040A22F232F342F4427585FF3CF4695C5
:1026A00037952795A795F0405395C9F77EF41F16E7
:1026B000BA0B620B730B840BBAF09150A1F0FF0FB1
:1026C000BB1F661F771F881FC2F70EC0BA0F621F9D
:1026D000731F841F48F4879577956795B795F7958D
:1026E0009E3F08F0B0CF9395880F08F09927EE0F22
:1026F0009795879508950E94651408F481E00895E0
:102700000E9494130C94A0140E94991458F00E94F3
:10271000921440F029F45F3F29F00C948914511170
:102720000C94D4140C948F140E94B11468F3992360
:10273000B1F3552391F3951B550BBB27AA276217BD
:102740007307840738F09F5F5F4F220F331F441FCA
:10275000AA1FA9F335D00E2E3AF0E0E832D09150FE
:102760005040E695001CCAF72BD0FE2F29D0660FEB
:10277000771F881FBB1F261737074807AB07B0E82E
:1027800009F0BB0B802DBF01FF2793585F4F3AF034
:102790009E3F510578F00C9489140C94D4145F3F3B
:1027A000E4F3983ED4F3869577956795B795F795BA
:1027B0009F5FC9F7880F911D9695879597F90895A2
:1027C000E1E0660F771F881FBB1F6217730784073E
:1027D000BA0720F0621B730B840BBA0BEE1F88F74D
:1027E000E09508950E94F9136894B1110C94D414E3
:1027F00008950E94B91488F09F5798F0B92F99272F
:10280000B751B0F0E1F0660F771F881F991F1AF0DB
:10281000BA95C9F714C0B13091F00E94D314B1E059
:1028200008950C94D314672F782F8827B85F39F058
:10283000B93FCCF3869577956795B395D9F73EF474
:1028400090958095709561957F4F8F4F9F4F08951C
:10285000E89409C097FB3EF490958095709561953A
:102860007F4F8F4F9F4F9923A9F0F92F96E9BB27F0
:102870009395F695879577956795B795F111F8CF6C
:10288000FAF4BB0F11F460FF1BC06F5F7F4F8F4FD7
:102890009F4F16C0882311F096E911C0772321F0CD
:1028A0009EE8872F762F05C0662371F096E8862F65
:1028B00070E060E02AF09A95660F771F881FDAF7BC
:1028C000880F9695879597F90895990F0008550FE9
:1028D000AA0BE0E8FEEF16161706E807F907C0F0A6
:1028E00012161306E407F50798F0621B730B840BAE
:1028F000950B39F40A2661F0232B242B252B21F488
:1029000008950A2609F4A140A6958FEF811D811D27
:10291000089597F99F6780E870E060E008959FEF61
:1029200080EC089500240A94161617061806090666
:10293000089500240A941216130614060506089535
:10294000092E0394000C11F4882352F0BB0F40F4BD
:10295000BF2B11F460FF04C06F5F7F4F8F4F9F4FFD
:10296000089557FD9058440F551F59F05F3F71F07F
:102970004795880F97FB991F61F09F3F79F08795E6
:102980000895121613061406551FF2CF4695F1DF6F
:1029900008C0161617061806991FF1CF86957105FF
:1029A000610508940895E894BB2766277727CB0133
:1029B00097F908950E94651408F48FEF08950E9416
:1029C000F2140C94A0140E94921438F00E949914EE
:1029D00020F0952311F00C9489140C948F14112479
:1029E0000C94D4140E94B11470F3959FC1F3950F09
:1029F00050E0551F629FF001729FBB27F00DB11D83
:102A0000639FAA27F00DB11DAA1F649F6627B00D12
:102A1000A11D661F829F2227B00DA11D621F739FFB
:102A2000B00DA11D621F839FA00D611D221F749F09
:102A30003327A00D611D231F849F600D211D822F50
:102A4000762F6A2F11249F5750409AF0F1F0882377
:102A50004AF0EE0FFF1FBB1F661F771F881F9150A4
:102A60005040A9F79E3F510580F00C9489140C94B6
:102A7000D4145F3FE4F3983ED4F386957795679539
:102A8000B795F795E7959F5FC1F7FE2B880F911DCE
:102A90009695879597F90895AA1BBB1B51E107C02E
:102AA000AA1FBB1FA617B70710F0A61BB70B881FDE
:102AB000991F5A95A9F780959095BC01CD0108956D
:102AC000A1E21A2EAA1BBB1BFD010DC0AA1FBB1F32
:102AD000EE1FFF1FA217B307E407F50720F0A21BA4
:102AE000B30BE40BF50B661F771F881F991F1A9411
:102AF00069F760957095809590959B01AC01BD013B
:102B0000CF010895EE0FFF1F0590F491E02D099479
:102B10000F931F93CF93DF938230910510F482E0DF
:102B200090E0E0913603F091370330E020E0B0E030
:102B3000A0E0309799F42115310509F44AC0281B0B
:102B4000390B24303105D8F58A819B8161157105D7
:102B500089F1FB0193838283FE0111C04081518181
:102B60000281138148175907E0F04817590799F473
:102B7000109761F012960C93129713961C9332964D
:102B8000CF01DF91CF911F910F91089500933603EC
:102B900010933703F4CF2115310551F04217530735
:102BA00038F0A901DB019A01BD01DF01F801C1CFB5
:102BB000EF01F9CF9093370380933603CDCFFE0119
:102BC000E20FF31F819391932250310939832883B7
:102BD000D7CF2091340330913503232B41F420913A
:102BE0000401309105013093350320933403209183
:102BF0000201309103012115310541F42DB73EB793
:102C00004091060150910701241B350BE0913403DC
:102C1000F0913503E217F307A0F42E1B3F0B2817A2
:102C2000390778F0AC014E5F5F4F2417350748F045
:102C30004E0F5F1F5093350340933403819391935C
:102C40009FCFF0E0E0E09CCFCF93DF930097E9F0D7
:102C5000FC01329713821282A0913603B0913703A0
:102C6000ED0130E020E01097A1F420813181820F46
:102C7000931F20913403309135032817390709F049
:102C800061C0F0933503E0933403DF91CF91089551
:102C9000EA01CE17DF07E8F54A815B819E01411505
:102CA0005105B1F7E901FB83EA8349915991C40FBA
:102CB000D51FEC17FD0761F4808191810296840F86
:102CC000951FE90199838883828193819B838A83FD
:102CD000F0E0E0E012968D919C9113970097B9F582
:102CE0002D913C911197CD010296820F931F209157
:102CF0003403309135032817390739F6309751F5E9
:102D00001092370310923603B0933503A093340327
:102D1000BCCFD383C28340815181840F951FC817D4
:102D2000D90761F44E5F5F4F88819981480F591F21
:102D3000518340838A819B8193838283211531054E
:102D400009F0B0CFF0933703E09336039ECFFD0137
:102D5000DC01C0CF13821282D7CFB0E0A0E0E3EB5A
:102D6000F6E10C9475178C01009751F4CB010E9489
:102D700088158C01C801CDB7DEB7E0E10C9491173E
:102D8000FC01E60FF71F9C0122503109E217F307FF
:102D900008F49DC0D901CD91DC911197C617D707D2
:102DA00098F0C530D10530F3CE0104978617970708
:102DB00008F3C61BD70B2297C193D1936D937C93D5
:102DC000CF010E942416D6CF5B01AC1ABD0A4C017C
:102DD0008C0E9D1EA0913603B0913703512C412CCF
:102DE000F12CE12C109731F580913403909135034B
:102DF0008815990509F05CC04616570608F058C0BA
:102E00008091020190910301009741F48DB79EB724
:102E10004091060150910701841B950BE817F907B3
:102E200008F055C0F0933503E0933403F901718342
:102E30006083A0CF8D919C91119712966C90129700
:102E400013967C901397A815B90559F56C0142E0CB
:102E5000C40ED11CCA14DB0420F1AC014A195B0971
:102E6000DA011296159780F0628273825183408353
:102E7000D9016D937C93E114F10471F0D70113969D
:102E8000FC93EE93129776CF22968C0F9D1FF9013B
:102E900091838083F301EFCFF0933703E093360300
:102EA00069CF4816590608F42C017D01D3019ACF49
:102EB000CB010E9488157C01009749F0AE01B80152
:102EC0000E946A17C8010E942416870153CF10E0A0
:102ED00000E050CFFB01DC0102C001900D92415097
:102EE0005040D8F708952F923F924F925F926F9281
:102EF0007F928F929F92AF92BF92CF92DF92EF928A
:102F0000FF920F931F93CF93DF93CDB7DEB7CA1B0A
:102F1000DB0B0FB6F894DEBF0FBECDBF09942A8835
:102F2000398848885F846E847D848C849B84AA84DD
:102F3000B984C884DF80EE80FD800C811B81AA816A
:102F4000B981CE0FD11D0FB6F894DEBF0FBECDBF35
:082F5000ED010895F894FFCF94
:102F58000C0100003803800000000000230C200C46
:102F68001C0C00000000D00128015D011D028E012B
:102F78006C01800100000000FC04CF042B05A504AF
:102F8800C804B504A6040D0A002F2F272722225CA7
:102F98005C6208660C6E0A720D7409005C7530304C
:102FA8003030006E756C6C00747275650066616C0B
:102FB80073650074656D700068756D69006C69678C
:042FC8006874000029
:00000001FF
