:100000000C9470000C9498000C9498000C94980038
:100010000C9498000C9498000C9498000C94980000
:100020000C9498000C9498000C9498000C949800F0
:100030000C9498000C9498000C9498000C949800E0
:100040000C94E9130C9498000C9459140C943314E8
:100050000C9498000C9498000C9498000C949800C0
:100060000C948B140C9498000000000025002800CC
:100070002B00040404040404040402020202020229
:10008000030303030303010204081020408001025C
:1000900004081020010204081020000000080002DB
:1000A0000100000304070000000000000000CDCCA8
:1000B000CC3D0AD7233C17B7D13877CC2B32959556
:1000C000E6241FB14F0A000020410000C842004052
:1000D0001C4620BCBE4CCA1B0E5AAEC59D74AA1548
:1000E00011241FBECFEFD8E0DEBFCDBF23E0AAE8CA
:1000F000B1E001C01D92AF30B207E1F711E0A0E01E
:10010000B1E0E6EDFDE302C005900D92AA38B1071B
:10011000D9F710E0C0E7D0E004C02197FE010E94AB
:10012000F11CCF36D107C9F70E940E160C94E91EB8
:100130000C94000008950895CF936093F902709392
:10014000FA028093FB029093FC02C091020320E02C
:1001500034E244E759E40E94921A2091FD022223DE
:1001600011F1C061C093020320E03AEB4BE558E483
:100170000E94A21B20E030E040E850E40E94921A66
:1001800020E030E040E058E30E94921A0E94871C71
:1001900080910003807C7F73782B709300036093C1
:1001A0000103CF910895CF7EC093020320E03AEB84
:1001B0004BE558E40E94A11BDDCF8091EB029091AA
:1001C000EC02891B990B089590E0FC01E656FF4F65
:1001D0002491FC01EA57FF4F3491FC01EE58FF4F88
:1001E000E491EE23C9F0222339F0233001F1A8F481
:1001F000213019F1223029F1F0E0EE0FFF1FE8590C
:10020000FF4FA591B4918FB7F894EC91611126C07E
:1002100030953E233C938FBF08952730A9F02830B6
:10022000C9F0243049F7809180008F7D03C0809110
:1002300080008F7780938000DFCF84B58F7784BD77
:10024000DBCF84B58F7DFBCF8091B0008F7780931B
:10025000B000D2CF8091B0008F7DF9CF3E2BDACFA6
:100260003FB7F8948091D2019091D301A091D4012D
:10027000B091D50126B5A89B05C02F3F19F0019676
:10028000A11DB11D3FBFBA2FA92F982F8827BC01F0
:10029000CD01620F711D811D911D42E0660F771F18
:1002A000881F991F4A95D1F708958F929F92AF9218
:1002B000BF92CF92DF92EF92FF924B015C010E94BE
:1002C00030016B017C010E9430016C197D098E099F
:1002D0009F09683E734081059105A8F321E0821AC9
:1002E0009108A108B10888EEC80E83E0D81EE11C71
:1002F000F11C81149104A104B10429F7FF90EF903F
:10030000DF90CF90BF90AF909F908F900895AF9265
:10031000BF92CF92DF92EF92FF920F931F93CF93F2
:10032000DF936C017B018B01040F151FEB015E0154
:10033000AE18BF08C017D10759F06991D601ED91E9
:10034000FC910190F081E02DC6010995892B79F788
:10035000C501DF91CF911F910F91FF90EF90DF903A
:10036000CF90BF90AF900895FC01538D448D252F01
:1003700030E0842F90E0821B930B541710F0CF963F
:10038000089501970895FC01918D828D981761F071
:10039000A28DAE0FBF2FB11D5D968C91928D9F5F88
:1003A0009F73928F90E008958FEF9FEF08952FB77E
:1003B000F8948091E1029091E202A091E302B09161
:1003C000E4022FBF80934C0290934D02A0934E0203
:1003D000B0934F0284E492E00E94C30197FF26C0CD
:1003E0002FB7F8948091E1029091E202A091E3028C
:1003F000B091E4022FBF40914C0250914D026091A8
:100400004E0270914F02841B950BA60BB70B4091C7
:1004100048025091490260914A0270914B02841740
:100420009507A607B707B0F28FEF9FEF0895FC017D
:10043000918D828D981731F0828DE80FF11D858D99
:1004400090E008958FEF9FEF0895FC01918D228D2C
:10045000892F90E0805C9F4F821B91098F739927B1
:10046000089584E492E00E94250221E0892B09F49A
:1004700020E0822F089580E090E0892B29F00E94EF
:10048000310281110C9400000895FC01A48DA80F85
:10049000B92FB11DA35ABF4F2C91848D90E00196C6
:1004A0008F739927848FA689B7892C93A089B189E6
:1004B0008C91837080648C93938D848D981306C087
:1004C0000288F389E02D80818F7D80830895EF92EB
:1004D000FF920F931F93CF93DF93EC0181E0888FFE
:1004E0009B8D8C8D98131AC0E889F989808185FFCE
:1004F00015C09FB7F894EE89FF896083E889F98970
:1005000080818370806480839FBF81E090E0DF9171
:10051000CF911F910F91FF90EF900895F62E0B8DC4
:1005200010E00F5F1F4F0F731127E02E8C8D8E117F
:100530000CC00FB607FCFACFE889F989808185FFE6
:10054000F5CFCE010E944502F1CFEB8DEC0FFD2FD0
:10055000F11DE35AFF4FF0829FB7F8940B8FEA89A1
:10056000FB8980818062CFCFCF93DF93EC01888DB0
:100570008823B9F0AA89BB89E889F9898C9185FD1E
:1005800003C0808186FD0DC00FB607FCF7CF8C91AC
:1005900085FFF2CF808185FFEDCFCE010E9445021D
:1005A000E9CFDF91CF9108952091AB01260F33273A
:1005B000331F21323105ECF420911C02FC0190E044
:1005C00080E0243069F082E00895A091AB01219190
:1005D000AC0145575E4FA40FB52FB11D2C9301966A
:1005E000861798F38091AB01680F6093AB0180E0B0
:1005F000089581E0089510921C0281E080931B020F
:100600001092F60161E082E10E94E40061E083E182
:100610000E94E400E9EBF0E080818E7F808380819E
:100620008D7F808388E48093B80085E48093BC004C
:100630000895CF93DF9391E090938A018823B9F0D6
:10064000C091B800D091BA008091BC008A7B8093A1
:10065000BC0060E082E10E94E40060E083E10E946F
:10066000E4000E94FB02D093BA00C093B800DF916F
:10067000CF9108950895E091EC028091EB02E81784
:1006800030F4F0E0EA52FE4F808190E008958FEF61
:100690009FEF08959091EC028091EB022FEF3FEFD6
:1006A000981748F4E92FF0E0EA52FE4F208130E03D
:1006B0009F5F9093EC02C9010895CF92DF92EF9271
:1006C000FF920F931F93CF93DF937C01CB018A019D
:1006D00020914302222389F0EB016B01C40ED51E49
:1006E000CC15DD0569F06991D701ED91FC91019080
:1006F000F081E02DC7010995F3CF642F0E94D40249
:10070000C801DF91CF911F910F91FF90EF90DF9083
:10071000CF900895CF93DF931F92CDB7DEB7698353
:10072000209143022223F9F02091E902203258F06F
:1007300021E030E0FC013383228390E080E00F90E1
:10074000DF91CF9108958091EA02E82FF0E0EE5D0D
:10075000FD4F998190838F5F8093EA028093E90235
:1007600081E090E0ECCF61E0CE0101960E94D402DE
:10077000F7CFCF92DF92EF92FF920F931F93CF9319
:10078000DF9381E08093430280E6809342021092DF
:10079000EA021092E902C0E0D3E069918DEE92E0A6
:1007A0000E948A0383E0C630D807B9F7C091E902F6
:1007B000C13208F091C00E9430016B017C01809130
:1007C0001C02811164C082E080931C0281E080934E
:1007D0001B028FEF80931A0210921902C093180225
:1007E000E2E2F2E0A8EFB1E080E0C81389C0109225
:1007F000F7018091F701806C8093F7018091F601F9
:10080000813009F081C01092F6010E9430016B0125
:100810007C018091F7018093BB0080911E02909132
:100820001F02A0912002B0912102892B8A2B8B2BD1
:1008300099F00E94300100911E0210911F02209138
:100840002002309121026C197D098E099F0906173B
:10085000170728073907E0F18091BC0083FDD9CF45
:1008600085EC8093BC000E9430016B017C0180917B
:100870001C02823009F44AC080911A028F3F61F154
:1008800080911A02803241F180911A0225C0809134
:100890001E0290911F02A0912002B0912102892B8B
:1008A0008A2B8B2B09F48BCF0E94300100911E0202
:1008B00010911F0220912002309121026C197D09B4
:1008C0008E099F09061717072807390708F077CF01
:1008D00080911D020E9419031092EA021092E9020F
:1008E0001092430264E670E080E090E0DF91CF91E7
:1008F0001F910F91FF90EF90DF90CF900C945501D6
:1009000091919D938F5F71CF85EEABCF80911E0249
:1009100090911F02A0912002B0912102892B8A2B75
:100920008B2B09F4A4CF0E94300100911E0210917C
:100930001F0220912002309121026C197D098E093D
:100940009F09061717072807390708F090CFC0CF6F
:1009500090E080E008956F3FA9F0E62FE295EF70F8
:1009600044E0E49F90011124DC01ED91FC91E20F41
:10097000F31F6F7082819381B6E06B9F800D911D94
:100980001124089590E080E00895CF93DF93EC0167
:1009900088819981DC01ED91FC910190F081E02D3D
:1009A00009952A813B81820F931F9B838A83DF9164
:1009B000CF910895982F80336CF08A3324F08F35CF
:1009C00024F08B3724F481E0089581341CF081E019
:1009D0009B350CF080E00895CF93DF93EC01888184
:1009E0009981DC01ED91FC910280F381E02D099564
:1009F0002A813B81820F931F9B838A83DF91CF9152
:100A000008958F929F92AF92BF92CF92DF92EF9212
:100A1000FF920F931F93CF93DF93CDB7DEB7669707
:100A20000FB6F894DEBF0FBECDBF6C018E01095E1C
:100A30001F4F78018AE0882E912CA12CB12CCB017C
:100A4000BA01A50194010E94CF1C942F852F605DEF
:100A5000F80162938F01A901692F782F4115510583
:100A60006105710561F7A7014E1B5F0BBF01C60150
:100A70000E94EC0466960FB6F894DEBF0FBECDBFA1
:100A8000DF91CF911F910F91FF90EF90DF90CF906A
:100A9000BF90AF909F908F900895FC018485811145
:100AA00014C0A781B085818592852FEF3FEFA817ED
:100AB000B90730F4CD010196908787832C9130E0FF
:100AC00037FD20E0238781E08487838508951F9385
:100AD000CF93DF93EC01162F0E944D05811306C0C2
:100AE0001C8681E0DF91CF911F91089580E0FACFBD
:100AF0000F931F93CF93DF938C01EB018991882390
:100B000069F0C8010E944D05882379F0FE013197F4
:100B1000908198130DC0F8011486F0CF90E080E02A
:100B2000DF91CF911F910F91089582E090E0F8CF6F
:100B300083E090E0F5CFCF93DF93EC01CE010E94EC
:100B40004D058B304CF489305CF4882359F081E0FA
:100B50008E8390E080E00BC08D3011F08032B9F7C9
:100B60001C86ECCF8E81811105C081E090E0DF9181
:100B7000CF91089582E090E0FACFCF93DF93DB012D
:100B8000FC01808191810097E1F012962C911297DF
:100B900013964C911397342F3F77FC0143814217F2
:100BA000130671F7ED91FC911197EC0124962E0F2D
:100BB0003F1FE217F30729F0519149915417C9F3E8
:100BC000DFCFDF91CF910895DC0152969C9152972F
:100BD000915084E0989F900111245096ED91FC91E2
:100BE000E20FF31F228133812115310579F0418114
:100BF0008081481758F481E0840F818386E0489F04
:100C0000200D311D11242115310521F460E070E023
:100C10008FEF0895B901892F8295807F840F089501
:100C2000DF92EF92FF920F931F93CF93DF93EC012C
:100C30007B01D12C688979898A89D816E0F484E00F
:100C4000D89E80011124060F171FD80112966D91AE
:100C50007C916115710541F0D701ED91FC91028005
:100C6000F381E02DC7010995F801138212821082E9
:100C70001182D394DFCF1A8A8FEF8C8BC617D707D8
:100C800061F0D701ED91FC910280F381E02DC70165
:100C90000995D98BC88B84E08B8BDF91CF911F9105
:100CA0000F91FF90EF90DF9008954F925F926F92B7
:100CB0007F928F929F92AF92BF92CF92DF92EF92EC
:100CC000FF920F931F93CF93DF9300D000D01F921A
:100CD000CDB7DEB7DC012C912B32E1F12D32D9F505
:100CE0000196EE24E394FC01208130ED320F3A307E
:100CF00010F02E3291F58C0160E070E0CB01F8012C
:100D0000219130ED832E820E39E0381508F444C06D
:100D10006A3949E97407840749E1940708F046C035
:100D2000AAE0B0E09B01AC010E94501B912CB12CB9
:100D3000A12C24013501409450946094709446167F
:100D400057066806790690F1680D791D8A1D9B1D6E
:100D50008F01D5CF0196E12CC6CF198229813A8126
:100D60004B815C816D8170E080E090E00F900F908E
:100D70000F900F900F90DF91CF911F910F91FF90E7
:100D8000EF90DF90CF90BF90AF909F908F907F902B
:100D90006F905F904F900895211108C0EE2051F19F
:100DA00061307105810550E89507A0F0F12CBAE09B
:100DB0008B2E912CA12CB12C6115710530E8830785
:100DC0009105F8F0A50194010E94CF1CCA01B90158
:100DD000F394F2CF22E029839B01AC018827992765
:100DE000DC01821B930BA40BB50B8A839B83AC8322
:100DF000BD83B4CF23E029836A837B838C839D8367
:100E0000ADCFF801D8012D918D0130ED320F3A3080
:100E100010F4F394F6CF2E3201F58F010F5F1F4FC0
:100E2000F8010F5F1F4F2081A0EDDA2ED20EB9E03E
:100E3000BD1598F06C3CECEC7E07ECE08E0791055C
:100E400078F7AAE0B0E09B01AC010E94501B6D0D49
:100E5000711D811D911DFA94E3CF20812F7D10E03B
:100E600000E0253409F050C021812D32B1F53296D1
:100E7000CC24C394DF0110E000E02F2D0F2C000CD8
:100E8000330B5AE0B52EFD01DD9040ED4D0D4A309B
:100E9000B0F5B09EA001B19E500D11240D2DDD0CBA
:100EA000110B00531109040F151FA801420F531F06
:100EB0004732510544F3CC20B9F080E090E0A0E047
:100EC000B0E8E11003C080E090E0DC0121E029837C
:100ED0008A839B83AC83BD8341CF2B3219F031963B
:100EE000C12CC8CF3296FCCF80E090E0A0E8BFEFE5
:100EF000E110ECCF80E090E0A0E8BFE7E7CFCC20A6
:100F000019F01195019511092081211126CF0F0D9E
:100F1000111DF7FC1A950E94311A36ECC32E30E0F1
:100F2000D32E101611063CF01195019511094EEAC9
:100F3000C42E40E0D42EF12C0115110591F000FFD4
:100F40000CC024E0F29EF0011124EC0DFD1D259152
:100F50003591459154910E94921A15950795F394F5
:100F6000EBCFE110905821E029836A837B838C8347
:100F70009D83F4CEDB01ED91FC9111970280F3810A
:100F8000E02DBC01CD010994AF92BF92CF92DF92C8
:100F9000EF92FF920F931F93CF93DF93EC018B019E
:100FA0008C8180FF24C0A881B981FB018381948159
:100FB00030E020E00097D9F0A817B907D1F5F80183
:100FC0006081718112968C911297815012968C9348
:100FD000129781110CC08D919C91119721153105AB
:100FE00029F1F90191838083CD010E94BA078C8198
:100FF000807631F1209721F1F8805801F5E1AF0EAC
:10100000B11C8FEFF816D1F06F2DC5010E94AB0413
:101010006C01FC01E580B8010E94C407F801818DD4
:10102000F6018083F801F18EFE2CEBCF948383834D
:10103000DBCF9C01FC0180819181BCCFF882F982D9
:101040001C82DF91CF911F910F91FF90EF90DF9065
:10105000CF90BF90AF9008950F931F93CF93DF93DE
:10106000EC01088119818B819C81009749F0FC017A
:10107000208131813C832B83B8010E94BA07F3CFD2
:1010800068817981CE010596DF91CF911F910F91F3
:101090000C941006EF92FF920F931F93CF93DF9360
:1010A0007C018B01EA016F3F710509F0B0F4E88122
:1010B000F9810480F581E02DAB014B5F5F4FBC01EE
:1010C000CE010995009749F0FC010383DF91CF9190
:1010D0001F910F91FF90EF900895E881F9810280B0
:1010E000F381E02DB701CE01099590E080E0EECFCD
:1010F000FF920F931F93CF93DF93EC01F62E8A811B
:101100009B810097C9F06C817D81FC0123812617AA
:10111000170691F408811981F80140815181660F09
:10112000771F6F5F7F4F0E944A08009719F421E0F4
:10113000F80122839B838A838A819B81009759F0DF
:101140002C813D81A9014F5F5F4F5D834C83820FEE
:10115000931FFC01F482DF91CF911F910F91FF90BB
:1011600008959F92AF92BF92CF92DF92EF92FF923B
:101170000F931F93CF93DF9300D000D01F92CDB772
:10118000DEB78C010E944D05D82EF8011486F12C93
:10119000E12C60EFC62EC8010E944D05F8011486AF
:1011A000D81609F4B3C0811113C082E090E00F900B
:1011B0000F900F900F900F90DF91CF911F910F9193
:1011C000FF90EF90DF90CF90BF90AF909F900895E9
:1011D0008C3509F099C0C8010E944D05882329F378
:1011E000E6E3F1E0853709F083C0F801148654E0A6
:1011F000952EB12CA12CC8010E944D058823A9F27F
:10120000813434F48053803130F083E090E0CFCFEC
:101210008F7D8753F8CF44E0AA0CBB1C4A95E1F7B9
:10122000A82AF80114869A949110E5CFC501985D1B
:101230008115944020F47501F3E0FF22ACCFC50185
:101240009C5D81159440A8F483E0B822B701762F05
:101250006627770F770F6A297B2990E080E0019657
:10126000603871058105910540F4C8010E94780835
:1012700092CFB50190E080E0F3CF1982262F2F7333
:1012800020682A8326E096958795779567952A9515
:10129000D1F76032710580F4606C6B835E01E4E02D
:1012A000AE0EB11CF50162915F01662309F473CFA4
:1012B000C8010E947808F6CF262F2F7320682B8351
:1012C00086E0769567958A95E1F76031710538F487
:1012D000606E6C835E01F5E0AF0EB11CE3CF606819
:1012E0006C83CD825E0126E0A20EB11CDBCF32966C
:1012F0009081992309F489CF8913F9CF81818823BB
:1013000009F483CFF8011486682FAFCF82819381CF
:10131000892B19F484E090E04ACF90E080E047CF39
:10132000AF92BF92CF92DF92EF92FF920F931F93F3
:10133000CF93DF9300D000D0CDB7DEB78C01DC01B6
:101340001296ED91FC91139714968D919C9115979F
:10135000E80FF91F1482ED90FC9011971496AC9051
:1013600014971596BC9015971296CD90DC90C601F7
:1013700004969A838983AB828B2D8F778C83BE01F1
:101380006F5F7F4FC70103960E94BD05009749F527
:10139000F70140815181B501C6010E944A080097BA
:1013A00021F421E0D70112962C93D801ED91FC9104
:1013B00023813481DC012D933C9394838383F80152
:1013C000138212820F900F900F900F90DF91CF91A8
:1013D0001F910F91FF90EF90DF90CF90BF90AF9053
:1013E0000895DC0112962C9112972F5F12962C9380
:1013F000E9CFCF93DF93EC01CB01CF3FD10509F0CB
:10140000B0F4BE016B5F7F4F6C177D0780F0DC018D
:10141000ED91FC910190F081E02D0995009721F06C
:10142000FC01C38321E02283DF91CF91089590E0F6
:1014300080E0FACFCF92DF92EF92FF920F931F934B
:10144000CF93DF9300D000D0CDB7DEB74115510563
:1014500009F44AC08C01FC01C080D18049835A83C1
:101460006B837C83BE016F5F7F4F03960E94BD0537
:10147000009789F0FC0122812F5F22830F900F904B
:101480000F900F90DF91CF911F910F91FF90EF90F0
:10149000DF90CF900895EB808C81F82EE894F7F8D8
:1014A000B601C7010E94F909009719F421E0F8017B
:1014B000E4CFE981FA81DC011496A7014E0F5F1F8A
:1014C0004E175F0719F021912D93FACFFC01EE0D15
:1014D000FF1D1482F80123813481FC0131832083B4
:1014E000F80194838383CACF90E080E0C7CFCF9286
:1014F000DF92EF92FF920F931F93CF93DF930E949F
:1015000030016B017C0180911C02811165C081E07A
:1015100080931C0280931B029FEF90931A021092FB
:10152000190294E0909318028093F7018091F701DB
:10153000806C8093F7018091F601813009F091C0B1
:101540001092F6010E9430016B017C018091F7013D
:101550008093BB0080911E0290911F02A0912002F7
:10156000B0912102892B8A2B8B2BA1F00E94300194
:1015700000911E0210911F02209120023091210241
:101580006C197D098E099F09061717072807390767
:1015900008F443C08091BC0083FDD8CF85EC8093D4
:1015A000BC000E9430016B017C0180911C028130E3
:1015B00009F459C080911902853008F076C08091F5
:1015C0001902E8EFF1E0A6EDB1E090E0981751F1D3
:1015D00021912D939F5FFACF80911E0290911F025F
:1015E000A0912002B0912102892B8A2B8B2B09F428
:1015F0008ACF0E94300100911E0210911F0220919B
:101600002002309121026C197D098E099F0906176D
:1016100017072807390708F076CF80911D020E942E
:10162000190380E01092EC028093EB02882359F0BA
:10163000C5E0D3E08DEE92E00E944A03899383E0F7
:10164000CA30D807B9F764E670E080E090E0DF9137
:10165000CF911F910F91FF90EF90DF90CF900C945E
:10166000550185EE9CCF80911E0290911F02A091A2
:101670002002B0912102892B8A2B8B2B09F495CF64
:101680000E94300100911E0210911F022091200241
:10169000309121026C197D098E099F0906171707E1
:1016A0002807390708F081CFB8CF85E08ACFCF92DD
:1016B000DF92EF92FF92CF936B017C018091020346
:1016C00080618093020326E636E646EE5EE3C701BC
:1016D0000E94A21B0E949C000E94B9030E94B903B1
:1016E0000E94770AC0910803C295CF7080910203CF
:1016F0008F7E8093020326E636E646EE5EE3C70160
:10170000B6010E94A11B0E949C000E94B9030E9486
:10171000B9030E94770A8091080382958F7091E047
:10172000C81708F090E09093FD02CF91FF90EF90E2
:10173000DF90CF9008950E94770A609105036F7340
:1017400090910003907C962B909300039091060358
:101750009093010370E0762F6627690F711D209129
:10176000FD0290E080E02223D9F00E94311A20E0AF
:1017700030E040E85EE30E94921A20E030E040E072
:1017800057E40E94921A20E03AEB4BE558E40E949D
:10179000A11B20E034E244E759E40E940E1C0895A6
:1017A0000E94311A20E030E040E85EE30E94921A85
:1017B00020E030E040E057E40E94921A20E03AEB4B
:1017C0004BE558E40E94A21BE4CFFB0101900020EE
:1017D000E9F73197AF01461B570B0C94EC04CF92FD
:1017E000DF92EF92FF920F931F93CF93DF938C01C1
:1017F0006B017A0162E20E94C504E601EC0CFD1C5B
:10180000EC16FD0699F06991E6E3F1E0D480DD2065
:10181000C9F0329683816813F9CF6CE5C8010E9444
:10182000C5046D2DC8010E94C504EACF62E2C8015B
:10183000DF91CF911F910F91FF90EF90DF90CF90AC
:101840000C94C5046111EECF69E471E0C8010E94F7
:10185000E50BD6CF2F923F924F925F926F927F927D
:101860008F929F92AF92BF92CF92DF92EF92FF92B0
:101870000F931F93CF93DF93CDB7DEB76B970FB660
:10188000F894DEBF0FBECDBF7C018B01DC01149646
:101890008C9114978A3009F4A0C2F0F4843009F4D2
:1018A00079C268F4833009F490C260E571E0C80140
:1018B0000E94E50BD80112968D919C9129C285302A
:1018C00009F47BC2863089F78C9165E571E081115E
:1018D00055C06AE571E052C08E3009F440C0C8F4CA
:1018E0008C3019F7CD90DD90ED90FC90B701A601FA
:1018F000F7FE0BC06DE2C8010E94C50444275527BE
:10190000BA014C195D096E097F09C8010E940105E1
:10191000FCC1803209F415C2803439F66BE5C80188
:101920000E94C504D701FC90BFEFFB1609F4E9C182
:10193000F801848195816F2D45960E94AB047C014E
:10194000B8010E942A0CD7011596FC90BFEFFB1638
:1019500009F4D7C16CE2C8010E94C504E5CFF701C4
:1019600080809180A280B380A5019401C501B4015B
:101970000E942C1A882331F060E571E0C8010E94B2
:10198000E50BC3C120E030E0A901C501B4010E940C
:101990002C1A882371F0A5019401C501B4010E949D
:1019A000A21B9B01AC01C501B4010E942C1A882323
:1019B00019F320E030E0A901C501B4010E942C1AFE
:1019C00087FF08C06DE2C8010E94C504B7FAB09451
:1019D000B7F8B09420E836E948E15BE4C501B4010A
:1019E0000E94B61C87FD83C074E1C72ED12CE0E2B3
:1019F000EE2EF12C312C212CF601EA53FF4F65918C
:101A0000759185919491A50194010E942C1A181644
:101A10007CF0F601E255FF4F2591359145915491A7
:101A2000C501B4010E94921A4B015C012E0C3F1CAF
:101A3000F594E794F4E0CF1AD1082CEFC2162FEFFB
:101A4000D206D1F63FEF3F8B20E030E0A901C5017F
:101A5000B4010E94B61C18160CF051C02CEA35ECEB
:101A600047E257E3C501B4010E942C1A18160CF482
:101A700046C0AF89B4E0AB02C0011124D12CC12C07
:101A8000FC01E255FF4F2F019C012A533F4F3901C2
:101A90003F893F3F09F433C0F201EC0DFD1D659114
:101AA00075918591949120E030E040E251E40E94EC
:101AB000921AA50194010E94B61C18167CF4F30139
:101AC000EC0DFD1D2591359145915491C501B40151
:101AD0000E94921A4B015C012E183F08F594E7947E
:101AE0008F8981508F8B94E0C91AD108D1CF50E2F1
:101AF000E52EF12C85E08F8B312C212CA5CFC50153
:101B0000B4010E94871C6B017C012B013C0180E425
:101B100092E4AFE0B0E0888F998FAA8FBB8F96E0F8
:101B20009F8BAAE04A16510461047104E0F0688DAD
:101B3000798D8A8D9B8D2AE030E040E050E00E9454
:101B4000CF1C288F398F4A8F5B8FBF89B150BF8BD5
:101B5000C301B2012AE030E040E050E00E94CF1C17
:101B600029013A01DECFC701B6010E94311A9B015B
:101B7000AC01C501B4010E94A11B4B015C01688D41
:101B8000798D8A8D9B8D0E94311A9B01AC01C50114
:101B9000B4010E94921A2B013C010E94871C4B0148
:101BA0005C010E94311A9B01AC01C301B2010E9489
:101BB000A11B9B01AC010E94A21B0E94871C860EE8
:101BC000971EA81EB91E888D998DAA8DBB8D88166B
:101BD0009906AA06BB06C0F09FEFC91AD90AE90AFE
:101BE000F90A2114310439F1AAE0CA16D104E1043A
:101BF000F10408F1BFEF2B1A3B0A812C912C540100
:101C0000C12CD12C7601C3942AE0422E512C612C98
:101C1000712CC501B401A30192010E94CF1C672B56
:101C2000682B692B61F4EF891E164CF449015A01A7
:101C3000E150EF8BEECF812C912C5401E5CFB70111
:101C4000A601C8010E940105FF89FF2391F16E01E1
:101C500021E1C20ED11CF88F76019AE0492E512C59
:101C6000612C712C388D3150388F3F3F69F0C501A0
:101C7000B401A30192010E94CF1C605DD6016E9356
:101C80006D0149015A01EECFBF898B2F90E0BC0155
:101C900060957095F701E81BF90B31978EE2808310
:101CA00044275527461B570B6E0D7F1DC8010E9408
:101CB000EC042114310449F165E6C8010E94C50411
:101CC000710137FE07C06DE2C8010E94C504F1949E
:101CD000E194F108FE0177969F018AE0C82ED12C8D
:101CE000C701B6010E94BB1C805D82937B01672BFC
:101CF000B9F7A9014E1B5F0BBF01C8010E94EC049C
:101D000004C06DE5C8010E94C504F8018281938179
:101D10006B960FB6F894DEBF0FBECDBFDF91CF91AB
:101D20001F910F91FF90EF90DF90CF90BF90AF90F9
:101D30009F908F907F906F905F904F903F902F90EB
:101D400008956BE7C8010E94C504D701FC90EE24FA
:101D5000E394BB24B394BFEFFB16D1F0F801848168
:101D600095816F2D45960E94AB046C01B8010E94CD
:101D70002A0CD6011596FC90BFEFFB1639F06AE3EA
:101D8000E11001C06CE2C8010E94C504EB24E3CF5E
:101D90006DE7B8CF6D917C9150E040E06115710521
:101DA00041F0FB0101900020E9F73197AF01461B9C
:101DB000570BC8010E94EF0BA8CFED91FC91438116
:101DC00050E0BF016C5F7F4FF4CFED91FC914381F8
:101DD00050E0BF016C5F7F4F90CF4D915D916D9151
:101DE0007C9193CD9F92AF92BF92CF92DF92EF9270
:101DF000FF920F931F93CF93DF938A01452B09F432
:101E000063C0E9016B016596FC016081CE010E940F
:101E1000AB04FC01BB24BA94892B09F0B580760190
:101E2000E894F7F8AA24A3946701C00ED11E992460
:101E30009394309709F448C0AA20D9F18481843062
:101E400039F0853051F190E080E0B0E0A0E00FC0C3
:101E5000A081B18190E080E0109741F0FD010190F8
:101E60000020E9F73197CF018A1B9B0B9F77E8167B
:101E7000F906F9F4F801EC15FD05B9F46B2DCE0166
:101E8000DF91CF911F910F91FF90EF90DF90CF9056
:101E9000BF90AF909F900C94AB040190F081E02D27
:101EA000DF011496838190E0E2CF91918D91981794
:101EB00011F3A9246B2DCE010E94AB04FC01892BE8
:101EC00009F4B7CFB580B5CF90E080E0DF91CF9136
:101ED0001F910F91FF90EF90DF90CF90BF90AF9048
:101EE0009F900895FC0120813181C9014A96428169
:101EF000538164817581009759F0D9015E96EC9108
:101F0000E03211F090E080E0009711F00C94F20EB6
:101F100090E080E008958F929F92AF92BF92CF920F
:101F2000DF92EF92FF92CF93DF93EB010E94720F4B
:101F3000FC0128813981892B09F471C084818A30A0
:101F400009F45AC088F4843009F469C0863009F075
:101F500066C0808190E0821793070CF463C0281755
:101F600039070CF046C021C08C3089F18E3009F061
:101F700056C0C080D180E280F380B901330F880B56
:101F8000990B0E94331A4B015C01AC019B01C70104
:101F9000B6010E942C1A87FD45C0A5019401C70116
:101FA000B6010E94B61C181624F522E030E081E04C
:101FB0002130310509F080E0DF91CF91FF90EF9063
:101FC000DF90CF90BF90AF909F908F900895408109
:101FD000518162817381C901330FAA0BBB0B481772
:101FE00059076A077B07F4F084179507A607B70718
:101FF000E4F221E030E0DBCF4081518162817381E6
:10200000C901330FAA0BBB0B481759076A077B0797
:1020100048F084179507A607B70758F7C6CF30E0F2
:1020200020E0C5CF24E030E0C2CFCB010C94931D5B
:102030000F931F93CF93DF93EC01888199810097D1
:1020400059F02A813B812617370730F081E0DF9174
:10205000CF911F910F9108958B016F5F7F4F0E9469
:102060001C1E009759F0998388831B830A832C8157
:102070003D81232B59F7FC011082E8CF80E0E7CFA8
:10208000CB01BA010C941C1E85ED8093BC0080919D
:102090001E0290911F02A0912002B091210207968A
:1020A000A11DB11D23E0B695A795979587952A9513
:1020B000D1F72091BC0024FD03C010921C020895AA
:1020C00040911E0250911F026091200270912102E6
:1020D000452B462B472B69F30097A105B10541F02D
:1020E0002AE22A95F1F700C00197A109B109E1CFD1
:1020F00080911D020C941903BF92CF92DF92EF9250
:10210000FF920F931F93CF93DF93EC01198D1F3F25
:1021100081F0612F45960E94AB04FC018081898F7C
:10212000309709F477C014828FEF8583BF01812F28
:1021300076C06C0135E0C30ED11CE880F9808F8930
:10214000882341F0C6010E94E405E62FF72F182FDF
:10215000309749F71F89988D191324C0103109F45D
:1021600059C0110F6D897E89D701ED91FC91B4E0C2
:102170001B9FA0011124C616D70609F044C0019088
:10218000F081E02DBA01C7010995009709F442C01A
:1021900020E1F601DC0101900D922A95E1F79E8B7A
:1021A0008D8B188F0D891E898F8921E0280F2F8B29
:1021B000E4E08E9FC0011124080F191F90E1B92E91
:1021C000203111F48FE0B82EF6E0BF9EB00111244B
:1021D000D701ED91FC910190F081E02DC7010995A7
:1021E000F80193838283892B09F4B12CD801BC9226
:1021F00011961C92012B71F0C6010E94E405E62F96
:10220000F72F182F8DCF0480F581E02DC701099598
:10221000009729F681E08A8360E070E08FEFDF911C
:10222000CF911F910F91FF90EF90DF90CF90BF90D3
:1022300008952F923F924F925F926F927F928F926A
:102240009F92AF92BF92CF92DF92EF92FF920F9345
:102250001F93CF93DF9300D000D01F92CDB7DEB78E
:102260008C017B01542E0E949B056C01892B09F087
:1022700059C0C8010E944D05863609F4D3C1ACF59A
:10228000873229F08B35E9F1823209F0D4C1D801C7
:1022900015961C921E92149712968D919C911397ED
:1022A000892B91F4CD90DC90F601608171818FE1F2
:1022B00090E00E94F909009721F421E0D6011296DE
:1022C0002C93F80193838283C8010E94B1086C01AA
:1022D000892B41F5C8010E94900925E0D701149689
:1022E0002C9314978D939C931DC0843709F479C166
:1022F0008B3709F47DC08E3609F09DC160E571E031
:1023000077C180E4D70114968C931497E114F104FB
:1023100021F08FEF8C9311968C9351101CC025E007
:10232000C22ED12CC6010F900F900F900F900F90DE
:10233000DF91CF911F910F91FF90EF90DF90CF90A1
:10234000BF90AF909F908F907F906F905F904F90D5
:102350003F902F900895F8011486C8010E949B05B4
:10236000009751F56DE5C8010E9467058111DACF2C
:102370005A94D8011D968D909C90C4010E947C10A7
:10238000782E5B01672B21F494E0C92ED12CCACFA3
:10239000F70161816F3F91F0C40145960E94AB0443
:1023A000DC0115967C92F7017182452DB501C801BB
:1023B0000E941911009739F06C01B4CFD7018C93AA
:1023C00011968C93F2CFC8010E949B050097A1F74C
:1023D0006DE5C8010E9467058111A4CF6CE2C801B8
:1023E0000E9467058111C5CF83E0C82ED12C9ACFFA
:1023F00080E2F7018483E114F10419F08FEF808308
:102400008183552009F48BCFD8011C961C92C801FA
:102410000E949B05009781F66DE7C8010E94670541
:10242000811180CF5A94F8011582148282819381A0
:10243000892B99F4C080D180D6016D917C918FE178
:1024400090E00E94F909009719F421E0F601228337
:10245000D80113969C938E931297C8010E944D0544
:10246000873201F18232F1F0C8010E944D05D82E69
:102470000E94DA04882309F4B7CFF80114866D2D81
:10248000C8010E947808C8010E944D05D82E0E94FC
:10249000DA048111F2CFD80112968D919C91892B8B
:1024A00041F472CFC8010E94B1086C01892B09F078
:1024B00039CFC8010E949B056C01892B09F032CFEE
:1024C0006AE3C8010E946705882309F48DCFD8010B
:1024D0001296ED91FC91139714968D919C911597FE
:1024E000E80FF91F148214966D917C9115977F77F0
:1024F0001D96AD90BC901E9712968D919C9104965E
:10250000272F2F77B42DB0784B2E422AE89447F826
:102510009501AC01742DC7010E94F20E6C01009769
:1025200009F05BC0C8010E9490093C01F801858454
:102530009684C4010E947C10282E5B01672B09F44D
:1025400023CFC4010E947C10382E962FC92ED72E7F
:10255000C114D10409F418CFE5E0D5011496EC9329
:10256000149711967C926E9215963C92D701119613
:102570006C916F3F71F1C40145960E94AB04FC0160
:102580002582D70111963C92452DB601C8010E94C3
:1025900019116C01892B09F0C5CEC8010E949B0559
:1025A0006C01892B09F0BECE6DE7C8010E9467055A
:1025B0008111B8CE6CE2C8010E946705882309F436
:1025C00013CFC8010E949B056C01892B09F42BCF06
:1025D000A9CEF70120823182D7CFB5010E94C4076E
:1025E000D3CF86E0F701848381E0808365E571E0E5
:1025F000C8010F900F900F900F900F90DF91CF9127
:102600001F910F91FF90EF90DF90CF90BF90AF9010
:102610009F908F907F906F905F904F903F902F9002
:102620000C94780586E0D70114968C9314971C922D
:102630006AE571E0DDCFC8010E944D054801BFE0A9
:102640008B0E911CB12C782CA92C803384F08A330A
:1026500084F4EFE3BE16A9F0D8011C961C92B39443
:10266000F40181934F01C8010E944D05EECF8B32DA
:1026700081F393ED980F923060F3982F9F7D9534FE
:1026800041F30B0D111DD8011F961C92872D9A2D19
:102690000E9455063A834B835C836D838A819B81BC
:1026A000AC81BD812230A9F0233059F0213009F0EE
:1026B0009BCE2EE0F701248380839183A283B38392
:1026C00031CE2AE0F701248380839183A283B383F0
:1026D00029CE2CE0F7CF5F926F927F928F929F92DC
:1026E000AF92BF92CF92DF92EF92FF920F931F9320
:1026F000CF93DF93FC01C081D181CE014A9691F442
:1027000090E080E0DF91CF911F910F91FF90EF90CB
:10271000DF90CF90BF90AF909F908F907F906F9001
:102720005F9008957480D580A280B380A114B10415
:1027300039F32E8D211118C020E22E8F2FEF2A8F12
:102740002B8F9E01A501672D7D2D0E94F20E009713
:10275000C9F6CE010E947C10682E7B01672B39F4EC
:1027600010E000E0C801CECF203259F3C9CFCE012E
:102770000E947C10C82E962F092F172F01151105C6
:1027800079F37D2DD7FE12C084E0F7018483B182F6
:10279000A082F701C5826B8D6F3FB1F0CE014596E7
:1027A0000E94AB04FC016582CB8EDCCF7F77A50154
:1027B000672DCE010E941A0A009791F225E0F701D9
:1027C000248391838083E5CF6A8EEECFCB010C9476
:1027D000F71C1F920F920FB60F9211242F933F9365
:1027E0008F939F93AF93BF938091E1029091E20208
:1027F000A091E302B091E4023091D10123E0230FD4
:102800002D3758F50196A11DB11D2093D10180935C
:10281000E1029093E202A093E302B093E40280917C
:10282000D2019091D301A091D401B091D50101962C
:10283000A11DB11D8093D2019093D301A093D40127
:10284000B093D501BF91AF919F918F913F912F91FF
:102850000F900FBE0F901F90189526E8230F029639
:10286000A11DB11DD2CF1F920F920FB60F9211244E
:102870002F933F934F935F936F937F938F939F9388
:10288000AF93BF93EF93FF9384E492E00E944502DD
:10289000FF91EF91BF91AF919F918F917F916F9138
:1028A0005F914F913F912F910F900FBE0F901F900E
:1028B00018951F920F920FB60F9211242F938F939A
:1028C0009F93EF93FF93E0915402F0915502808122
:1028D000E0915A02F0915B0282FD1BC090818091D1
:1028E0005D028F5F8F7320915E02821741F0E0914D
:1028F0005D02F0E0EC5BFD4F958F80935D02FF91F0
:10290000EF919F918F912F910F900FBE0F901F907D
:1029100018958081F4CF1F920F920FB60F92112459
:102920002F933F934F935F936F937F938F939F93D7
:10293000AF93BF93EF93FF938091B900887F803668
:1029400009F44AC0F0F5883209F4A7C018F58031BF
:1029500009F49BC0B8F4882309F4F9C0883009F45D
:1029600094C0FF91EF91BF91AF919F918F917F9113
:102970006F915F914F913F912F910F900FBE0F90EC
:102980001F901895883109F488C0803251F78093E0
:102990001A0214C0803409F49DC040F48033B9F3A6
:1029A0008833F9F680931A0285ECB0C0803509F4BB
:1029B00085C0883509F496C0883499F60E94441081
:1029C000D0CF883909F48CC038F5883729F050F415
:1029D000883611F0803729F683E080931C0210922C
:1029E000CD0157C0883809F47BC0803919F0803890
:1029F00009F0B7CF8091CD01803208F071C0E0912D
:102A0000CD0181E08E0F8093CD018091BB00F0E07D
:102A1000E355FE4F80833DC0803B39F0E0F4803ABF
:102A200009F479C0883A09F09CCF84E080931C02B5
:102A30001092AC011092AB01E091E702F091E80234
:102A400009958091AB0181110FC081E08093AB01AA
:102A500010928B0109C0803C09F4A6CF883C09F490
:102A6000A3CF883B09F07DCFE091AC0181E08E0FD0
:102A70008093AC01F0E0E557FE4F80818093BB006E
:102A80009091AC018091AB0129C08091F7018093B6
:102A9000BB0085EC8093BC0064CF909119028091BB
:102AA0001802981758F5E091190281E08E0F809373
:102AB0001902F0E0E850FE4F8081E9CFE091190261
:102AC00081E08E0F809319028091BB00F0E0E85006
:102AD000FE4F808390911902809118029817C8F2D6
:102AE00085E8D8CFE091190281E08E0F809319021A
:102AF0008091BB00F0E0E850FE4F808380911B0284
:102B000081115CCF81E08093F60184EA8093BC0060
:102B100010921C0226CF85EC8093BC0010921C0200
:102B20008091CD01803230F4E091CD01F0E0E355A9
:102B3000FE4F10826091CD0170E0E091E502F091CE
:102B4000E6028DEA91E009951092CD010ACF10922C
:102B50001A0234CFE4E4F2E01382128288EE93E0AA
:102B6000A0E0B0E084839583A683B78326E131E0BB
:102B70003183208325EC30E03587248724EC30E056
:102B80003787268720EC30E0318B208B21EC30E03A
:102B9000338B228B22EC30E0358B248B26EC30E01B
:102BA000378B268B118E128E138E148EEDEEF2E083
:102BB0001382128284839583A683B78388E291E08F
:102BC000918380831092EC021092EB021092EA0241
:102BD0001092E9020E94FB028AE990E09093E802D9
:102BE0008093E7028BE990E09093E6028093E50200
:102BF000E9EFF2E01782108680EB818780E182871F
:102C00001386118A8FB7F8944091E1025091E20245
:102C10006091E3027091E4028FBF0895CF93DF9338
:102C2000CDB7DEB7CD57D1090FB6F894DEBF0FBED2
:102C3000CDBF789484B5826084BD84B5816084BD45
:102C400085B5826085BD85B5816085BD80916E004A
:102C5000816080936E00109281008091810082607B
:102C600080938100809181008160809381008091B8
:102C700080008160809380008091B10084608093A7
:102C8000B1008091B00081608093B00080917A00A3
:102C9000846080937A0080917A00826080937A00C9
:102CA00080917A00816080937A0080917A008068B8
:102CB00080937A001092C100E0915402F091550285
:102CC00082E08083E0915002F09151021082E09105
:102CD0005202F09153028FEC808310925C02E091DB
:102CE0005802F091590286E08083E0915602F091FB
:102CF0005702808180618083E0915602F0915702F3
:102D0000808188608083E0915602F0915702808133
:102D100080688083E0915602F091570280818F7D18
:102D2000808360E070E083EB92E40E94570B60E0E8
:102D300070E083EB92E40E949C000E94B90381E062
:102D400080930A03809100038068809300030E94AF
:102D5000B9031092D0011092CF018E010F5F1F4F67
:102D600080E590E08C0F9D1F4A96EE969FAF8EAF48
:102D7000EE9770E5672E712C6C0E7D1E95E0690E46
:102D8000711C64E7A62E61E0B62E84E492E00E94F6
:102D90002502892B09F483C1E2961FAE1EAEE2978D
:102DA000E4961FAE1EAEE497E6961FAE1EAEE69703
:102DB00070E060E0CE0180599F4F0E941810E296AB
:102DC0002EAD3FADE29781113CC02115310519F0C0
:102DD000C9010E94931DE2961FAE1EAEE297E696D1
:102DE0001FAE1EAEE697E4961FAE1EAEE4970E949D
:102DF000D701E696CEACDFACE69797FD2CC08A30C3
:102E0000910549F189831A82EFEFCE1ADE0AB601E5
:102E1000CE0180599F4F0E941810882341F3E296FB
:102E20002EAD3FADE297E6968EAD9FADE697B80129
:102E3000820F931F0E94E21EE696DFAECEAEE697AB
:102E4000D6CFE6961FAE1EAEE69768E471E0C901E4
:102E50000E94E21ECCCF80E091E062969FAF8EAFE1
:102E6000629763961FAE639765961FAE1EAE659719
:102E7000A7967FAE6EAEA797A8961FAEA89784E0E0
:102E8000A9968FAFA9978FEFAA968FAFAA97AF9603
:102E90001FAEAF97E0968FAFE097E2968EAC9FACF7
:102EA000E29760E071E0C3010E94100663961FAED6
:102EB000639762964EAC5FAC629765968EAD9FADA0
:102EC0006597009759F0FC012081318165963FAFED
:102ED0002EAF6597B2010E94BA07EFCFAF961FAE33
:102EE000AF9780E590E08C0F9D1F9A8389831C82A9
:102EF0001B821E821D821F8299868886C80CD91C5F
:102F0000DB86CA861D869F878E874AE0EE966EAD69
:102F10007FADEE97C8010E9419116C01892B59F4FD
:102F20008C85882341F0AF968FADAF9783FF03C0A8
:102F300053E0C52ED12C8B819C81009731F0E98123
:102F4000FA81608171810E94BA07CD2809F09AC088
:102F5000E0E5F0E0EC0FFD1FFA83E9838CE691E0F9
:102F60009C838B8387E08D838E818078D82E6894B4
:102F7000D7F8DE82C8010E94720F009709F467C07B
:102F8000FC01848183FF63C06894D7F8DE82C801A6
:102F90000E94720FFC01892B31F08481863099F0F8
:102FA00030F4843000F5C12CD12C76013FC08C3038
:102FB00089F08E3009F4CDC18A30A9F76081718122
:102FC0008281938104C0608170E090E080E00E9483
:102FD000311A06C060817181828193810E94331A07
:102FE0006B017C0123C08081918104960E9455066B
:102FF000E7962FAFE797E8963FAFE897E9964FAF90
:10300000E997EA965FAFEA97EB966FAFEB97EB968F
:10301000CCACDDACEEACFFACEB97223009F493C145
:10302000233009F493C1213009F0BDCFC701B601A7
:103030000E94570BC701B6010E949C000E94B90371
:103040001092D0011092CF0181E08093CE0180E5F3
:1030500090E08C0F9D1F9A838983BC82AB8285E0B0
:103060008D838E81807880688E83C8010E94720F64
:10307000FC01892B39F084818A3009F46FC18C30CE
:1030800009F4CEC1CE01805B9F4F0E942C08E296CE
:103090008EAD9FADE297009711F00E94931D809135
:1030A000CF019091D001892B09F03AC180E091E0E5
:1030B0009A8389831B821D821C82E6E0F0E0EC0F7C
:1030C000FD1FFF8BEE8B188E84E0898F8FEF8A8F28
:1030D0001F8E88A362961FAF0EAF62976496BFAE35
:1030E000AEAE649785E065968FAF659766968FADB7
:1030F00066978078806866968FAF6697CE01805B12
:103100009F4F0E946B136C01009749F09090CE0185
:10311000B8010E94C40786E0F601848390820E9471
:10312000770A8091070340E6C42E41E0D42E87FD44
:1031300004C037E6C32E31E0D32E62961FAF0EAF28
:1031400062978AE791E064969FAF8EAF649786E0BE
:1031500065968FAF659766968FAD66978078806825
:1031600066968FAF6697CE01805B9F4F0E946B1370
:103170004C01F60101900020E9F731972F014C181E
:103180005D080097E9F0B8010E94C407852D8F778C
:10319000EC96FFADEC97F078FF2EF82A2F2D2F77C5
:1031A000EC962FAFEC97A601642D722FC8010E94F8
:1031B0001A0A009729F025E0F40124839183808383
:1031C0000E949B0B20E030E040E251E40E94921A02
:1031D00020E030E0A9010E94B61C87FD2EC10E94AC
:1031E0009B0B20E030E040E251E40E94921A20E084
:1031F00030E040E05FE30E94A21B0E94801C0E941E
:10320000331A20E030E040E251E40E940E1C1B0122
:103210002C0162961FAF0EAF62978FE691E0649625
:103220009FAF8EAF649784E065968FAF6597669683
:103230008FAD66978078806866968FAF6697CE016F
:10324000805B9F4F0E946B136C01009751F0B80197
:103250000E94C4078EE0F60184832082318242827C
:1032600053820E94B9030E94770A909008036296E5
:103270001FAF0EAF629781E891E064969FAF8EAF6B
:10328000649785E065968FAF659766968FAD669774
:103290008078806866968FAF6697CE01805B9F4F7F
:1032A0000E946B136C010097A9F0B8010E94C4073B
:1032B0008AE0F6018483892D90E024E09595879536
:1032C0002A95E1F7092E000CAA0BBB0B8083918392
:1032D000A283B38381E090E09093D0018093CF01EB
:1032E00084E492E062969FAF8EAF629764961FAEC1
:1032F0001EAE649766961FAF0EAF6697BE01605B09
:103300007F4FCE014B960E942A0C42E050E067E8C6
:1033100071E084E492E00E948701C8010E942C08B9
:103320006AEF70E080E090E00E94550180E090E05C
:10333000892B09F42ACD0E943102882309F421CD7A
:103340000E94000016CDC701B60148CEC701B601E4
:103350003ECEC080D180E280F38068CE80819181B2
:10336000A281B38181159048A105B10508F08ACEEC
:10337000E8961FAE1EAEE89780E590E08C0F9D1F8B
:103380009A838983BC82AB8285E08D838E8180782D
:1033900080688E83BE016A587F4FC8010E948B0FE0
:1033A000882381F081E080930A0380910003806884
:1033B000809300030E94B9031092D0011092CF01B4
:1033C0001092CE0181E090E0E8969FAF8EAFE89733
:1033D000E0E5F0E0EC0FFD1FFA83E983BC82AB82ED
:1033E00085E08D838E81807880688E83BE016A58E7
:1033F0007F4FC8010E948B0F882309F443CE10929F
:103400000A03809100038F77809300030E94B90321
:103410001092D0011092CF0181E08093CE0132CE84
:1034200080819181A281B3819058AF4FBF4F0097A7
:10343000A140B10508F026CE9BCF0E949B0B20E057
:1034400030E040E251E40E94921A20E030E040E097
:103450005FE30E94A11BD1CE0E946E1A08F481E0A6
:103460000895E89409C097FB3EF490958095709577
:1034700061957F4F8F4F9F4F9923A9F0F92F96E9C0
:10348000BB279395F695879577956795B795F11135
:10349000F8CFFAF4BB0F11F460FF1BC06F5F7F4FD2
:1034A0008F4F9F4F16C0882311F096E911C07723E4
:1034B00021F09EE8872F762F05C0662371F096E8ED
:1034C000862F70E060E02AF09A95660F771F881FBC
:1034D000DAF7880F9695879597F90895990F000860
:1034E000550FAA0BE0E8FEEF16161706E807F907D6
:1034F000C0F012161306E407F50798F0621B730B71
:10350000840B950B39F40A2661F0232B242B252BF1
:1035100021F408950A2609F4A140A6958FEF811D94
:10352000811D08950E94A51A0C94161B0E94081B69
:1035300038F00E940F1B20F0952311F00C94FF1A15
:103540000C94051B11240C944A1B0E94271B70F33A
:10355000959FC1F3950F50E0551F629FF001729F38
:10356000BB27F00DB11D639FAA27F00DB11DAA1F47
:10357000649F6627B00DA11D661F829F2227B00D94
:10358000A11D621F739FB00DA11D621F839FA00D1F
:10359000611D221F749F3327A00D611D231F849F6F
:1035A000600D211D822F762F6A2F11249F575040C6
:1035B0009AF0F1F088234AF0EE0FFF1FBB1F661F41
:1035C000771F881F91505040A9F79E3F510580F00A
:1035D0000C94FF1A0C944A1B5F3FE4F3983ED4F31B
:1035E000869577956795B795F795E7959F5FC1F7AE
:1035F000FE2B880F911D9695879597F9089597F959
:103600009F6780E870E060E008959FEF80EC089588
:1036100000240A94161617061806090608950024B1
:103620000A9412161306140605060895092E03942B
:10363000000C11F4882352F0BB0F40F4BF2B11F49F
:1036400060FF04C06F5F7F4F8F4F9F4F089557FDFE
:103650009058440F551F59F05F3F71F04795880F00
:1036600097FB991F61F09F3F79F087950895121697
:1036700013061406551FF2CF4695F1DF08C0161643
:1036800017061806991FF1CF8695710561050894F4
:103690000895E894BB2766277727CB0197F908950B
:1036A0000E94921BA59F900DB49F900DA49F800D2A
:1036B000911D112408952F923F924F925F926F9225
:1036C0007F928F929F92AF92BF92CF92DF92EF92B2
:1036D000FF920F931F93CF93DF93CDB7DEB7CA1B33
:1036E000DB0B0FB6F894DEBF0FBECDBF09942A885E
:1036F000398848885F846E847D848C849B84AA8406
:10370000B984C884DF80EE80FD800C811B81AA8192
:10371000B981CE0FD11D0FB6F894DEBF0FBECDBF5D
:10372000ED010895A29FB001B39FC001A39F700D4A
:10373000811D1124911DB29F700D811D1124911DB9
:1037400008955058BB27AA270E94B91B0C94161B3A
:103750000E94081B38F00E940F1B20F039F49F3F95
:1037600019F426F40C94051B0EF4E095E7FB0C9479
:10377000FF1AE92F0E94271B58F3BA176207730735
:103780008407950720F079F4A6F50C94491B0EF4F4
:10379000E0950B2EBA2FA02D0B01B90190010C0161
:1037A000CA01A0011124FF27591B99F0593F50F479
:1037B000503E68F11A16F040A22F232F342F4427D1
:1037C000585FF3CF469537952795A795F0405395C9
:1037D000C9F77EF41F16BA0B620B730B840BBAF099
:1037E0009150A1F0FF0FBB1F661F771F881FC2F704
:1037F0000EC0BA0F621F731F841F48F48795779518
:103800006795B795F7959E3F08F0B0CF9395880FD1
:1038100008F09927EE0F9795879508950E94221C2E
:103820000C94161B0E940F1B58F00E94081B40F0BE
:1038300029F45F3F29F00C94FF1A51110C944A1B94
:103840000C94051B0E94271B68F39923B1F35523A1
:1038500091F3951B550BBB27AA27621773078407A3
:1038600038F09F5F5F4F220F331F441FAA1FA9F339
:1038700035D00E2E3AF0E0E832D091505040E69527
:10388000001CCAF72BD0FE2F29D0660F771F881F88
:10389000BB1F261737074807AB07B0E809F0BB0B7B
:1038A000802DBF01FF2793585F4F3AF09E3F51058F
:1038B00078F00C94FF1A0C944A1B5F3FE4F3983E97
:1038C000D4F3869577956795B795F7959F5FC9F778
:1038D000880F911D9695879597F90895E1E0660FF9
:1038E000771F881FBB1F621773078407BA0720F072
:1038F000621B730B840BBA0BEE1F88F7E0950895DB
:103900000E94871C6894B1110C944A1B08950E9470
:103910002F1B88F09F5798F0B92F9927B751B0F017
:10392000E1F0660F771F881F991F1AF0BA95C9F743
:1039300014C0B13091F00E94491BB1E008950C947D
:10394000491B672F782F8827B85F39F0B93FCCF330
:10395000869577956795B395D9F73EF490958095C0
:10396000709561957F4F8F4F9F4F08950E946E1AFB
:1039700008F48FEF0895AA1BBB1B51E107C0AA1FD3
:10398000BB1FA617B70710F0A61BB70B881F991F00
:103990005A95A9F780959095BC01CD010895A1E2B3
:1039A0001A2EAA1BBB1BFD010DC0AA1FBB1FEE1FB9
:1039B000FF1FA217B307E407F50720F0A21BB30B04
:1039C000E40BF50B661F771F881F991F1A9469F780
:1039D00060957095809590959B01AC01BD01CF01DC
:1039E0000895EE0FFF1F0590F491E02D09940F93B9
:1039F0001F93CF93DF938230910510F482E090E023
:103A0000E0910D03F0910E0330E020E0B0E0A0E083
:103A1000309799F42115310509F44AC0281B390B58
:103A200024303105D8F58A819B816115710589F1B2
:103A3000FB0193838283FE0111C040815181028189
:103A4000138148175907E0F04817590799F4109760
:103A500061F012960C93129713961C933296CF0135
:103A6000DF91CF911F910F91089500930D03109353
:103A70000E03F4CF2115310551F04217530738F0EA
:103A8000A901DB019A01BD01DF01F801C1CFEF01FE
:103A9000F9CF90930E0380930D03CDCFFE01E20F7B
:103AA000F31F819391932250310939832883D7CF13
:103AB00020910B0330910C03232B41F4209104013E
:103AC0003091050130930C0320930B0320910201E8
:103AD000309103012115310541F42DB73EB74091D6
:103AE000060150910701241B350BE0910B03F09167
:103AF0000C03E217F307A0F42E1B3F0B281739071E
:103B000078F0AC014E5F5F4F2417350748F04E0F39
:103B10005F1F50930C0340930B03819391939FCFAE
:103B2000F0E0E0E09CCFCF93DF930097E9F0FC0159
:103B3000329713821282A0910D03B0910E03ED0112
:103B400030E020E01097A1F420813181820F931F93
:103B500020910B0330910C032817390709F061C03D
:103B6000F0930C03E0930B03DF91CF910895EA01EA
:103B7000CE17DF07E8F54A815B819E0141155105AB
:103B8000B1F7E901FB83EA8349915991C40FD51F2D
:103B9000EC17FD0761F4808191810296840F951FD7
:103BA000E90199838883828193819B838A83F0E0F2
:103BB000E0E012968D919C9113970097B9F52D91A5
:103BC0003C911197CD010296820F931F20910B0318
:103BD00030910C032817390739F6309751F51092B8
:103BE0000E0310920D03B0930C03A0930B03BCCFF4
:103BF000D383C28340815181840F951FC817D90791
:103C000061F44E5F5F4F88819981480F591F51833E
:103C100040838A819B81938382832115310509F03A
:103C2000B0CFF0930E03E0930D039ECFFD01DC01B6
:103C3000C0CF13821282D7CFB0E0A0E0E2E2FEE173
:103C40000C945D1B8C01009751F4CB010E94F71C72
:103C50008C01C801CDB7DEB7E0E10C94791BFC0103
:103C6000E60FF71F9C0122503109E217F30708F411
:103C70009DC0D901CD91DC911197C617D70798F057
:103C8000C530D10530F3CE0104978617970708F3A6
:103C9000C61BD70B2297C193D1936D937C93CF0111
:103CA0000E94931DD6CF5B01AC1ABD0A4C018C0E4D
:103CB0009D1EA0910D03B0910E03512C412CF12CAF
:103CC000E12C109731F580910B0390910C0388152E
:103CD000990509F05CC04616570608F058C0809157
:103CE000020190910301009741F48DB79EB7409176
:103CF000060150910701841B950BE817F90708F09E
:103D000055C0F0930C03E0930B03F90171836083BA
:103D1000A0CF8D919C91119712966C90129713964B
:103D20007C901397A815B90559F56C0142E0C40EB3
:103D3000D11CCA14DB0420F1AC014A195B09DA0179
:103D40001296159780F06282738251834083D90165
:103D50006D937C93E114F10471F0D7011396FC93F9
:103D6000EE93129776CF22968C0F9D1FF9019183C7
:103D70008083F301EFCFF0930E03E0930D0369CF3F
:103D80004816590608F42C017D01D3019ACFCB01C6
:103D90000E94F71C7C01009749F0AE01B8010E9417
:103DA000D91EC8010E94931D870153CF10E000E087
:103DB00050CFFB01DC0102C001900D9241505040F8
:103DC000D8F70895FB01DC0101900D920020E1F786
:063DD0000895F894FFCFF6
:103DD6000C0100000F03800000000000E613151020
:103DE60040100000000067028701B401B4022502FA
:103DF600C3011702000000008A035D03A8043A030A
:103E0600DD004A033B032F2F272722225C5C620832
:103E1600660C6E0A720D7409005C75303030300025
:103E26006E756C6C00747275650066616C73650006
:103E360053746572656F004D6F6E6F0073657466BF
:103E4600726571007374617465007369676E616C85
:0A3E5600006C6576656C000D0A0033
:00000001FF
